{
  "abi": [
    {
      "inputs": [
        {
          "internalType": "address",
          "name": "_paymentCurrency",
          "type": "address"
        },
        {
          "internalType": "address",
          "name": "_multisig",
          "type": "address"
        }
      ],
      "stateMutability": "nonpayable",
      "type": "constructor"
    },
    {
      "inputs": [],
      "name": "admin",
      "outputs": [
        {
          "internalType": "address",
          "name": "",
          "type": "address"
        }
      ],
      "stateMutability": "view",
      "type": "function"
    },
    {
      "inputs": [],
      "name": "approveAdmin",
      "outputs": [],
      "stateMutability": "nonpayable",
      "type": "function"
    },
    {
      "inputs": [],
      "name": "approveMultisig",
      "outputs": [],
      "stateMutability": "nonpayable",
      "type": "function"
    },
    {
      "inputs": [],
      "name": "confirmWithdrawal",
      "outputs": [],
      "stateMutability": "nonpayable",
      "type": "function"
    },
    {
      "inputs": [],
      "name": "multisig",
      "outputs": [
        {
          "internalType": "address",
          "name": "",
          "type": "address"
        }
      ],
      "stateMutability": "view",
      "type": "function"
    },
    {
      "inputs": [],
      "name": "paymentCurrency",
      "outputs": [
        {
          "internalType": "address",
          "name": "",
          "type": "address"
        }
      ],
      "stateMutability": "view",
      "type": "function"
    },
    {
      "inputs": [],
      "name": "pendingAdmin",
      "outputs": [
        {
          "internalType": "address",
          "name": "",
          "type": "address"
        }
      ],
      "stateMutability": "view",
      "type": "function"
    },
    {
      "inputs": [],
      "name": "pendingMultisig",
      "outputs": [
        {
          "internalType": "address",
          "name": "",
          "type": "address"
        }
      ],
      "stateMutability": "view",
      "type": "function"
    },
    {
      "inputs": [],
      "name": "pendingWithdrawal",
      "outputs": [
        {
          "internalType": "address",
          "name": "currency",
          "type": "address"
        },
        {
          "internalType": "uint256",
          "name": "amount",
          "type": "uint256"
        }
      ],
      "stateMutability": "view",
      "type": "function"
    },
    {
      "inputs": [],
      "name": "rejectAdmin",
      "outputs": [],
      "stateMutability": "nonpayable",
      "type": "function"
    },
    {
      "inputs": [],
      "name": "rejectMultisig",
      "outputs": [],
      "stateMutability": "nonpayable",
      "type": "function"
    },
    {
      "inputs": [],
      "name": "rejectWithdrawal",
      "outputs": [],
      "stateMutability": "nonpayable",
      "type": "function"
    },
    {
      "inputs": [
        {
          "internalType": "address",
          "name": "_admin",
          "type": "address"
        }
      ],
      "name": "setAdmin",
      "outputs": [],
      "stateMutability": "nonpayable",
      "type": "function"
    },
    {
      "inputs": [
        {
          "internalType": "address",
          "name": "_multisig",
          "type": "address"
        }
      ],
      "name": "setMultisig",
      "outputs": [],
      "stateMutability": "nonpayable",
      "type": "function"
    },
    {
      "inputs": [
        {
          "internalType": "address",
          "name": "_currency",
          "type": "address"
        },
        {
          "internalType": "uint256",
          "name": "_amount",
          "type": "uint256"
        }
      ],
      "name": "withdrawCurrency",
      "outputs": [],
      "stateMutability": "nonpayable",
      "type": "function"
    }
  ],
  "bytecode": {
    "object": "0x608060405234801561001057600080fd5b5060405161069f38038061069f83398101604081905261002f91610087565b600480546001600160a01b03199081163317909155600080546001600160a01b03948516908316179055600280549290931691161790556100ba565b80516001600160a01b038116811461008257600080fd5b919050565b6000806040838503121561009a57600080fd5b6100a38361006b565b91506100b16020840161006b565b90509250929050565b6105d6806100c96000396000f3fe608060405234801561001057600080fd5b50600436106100f55760003560e01c80637e28882211610097578063b445eae111610066578063b445eae1146101d6578063f3283fba146101de578063f851a440146101f1578063fb9883cb1461020457600080fd5b80637e2888221461017d5780638809fd50146101b3578063a11d1375146101bb578063a1626fb5146101c357600080fd5b80633febacd2116100d35780633febacd2146101475780634783c35b1461014f5780635677881214610162578063704b6c021461016a57600080fd5b806326782247146100fa578063359f517e1461012a5780633d15cc6d14610134575b600080fd5b60035461010d906001600160a01b031681565b6040516001600160a01b0390911681526020015b60405180910390f35b610132610217565b005b60005461010d906001600160a01b031681565b6101326102b4565b60025461010d906001600160a01b031681565b6101326102e2565b610132610178366004610532565b610320565b600554600654610194916001600160a01b03169082565b604080516001600160a01b039093168352602083019190915201610121565b6101326103b7565b6101326103e0565b60015461010d906001600160a01b031681565b61013261041e565b6101326101ec366004610532565b610447565b60045461010d906001600160a01b031681565b610132610212366004610554565b6104d9565b6002546001600160a01b0316331461022e57600080fd5b6005546002546006546040516323b872dd60e01b81523060048201526001600160a01b03928316602482015260448101919091529116906323b872dd906064016020604051808303816000875af115801561028d573d6000803e3d6000fd5b505050506040513d601f19601f820116820180604052508101906102b1919061057e565b50565b6002546001600160a01b031633146102cb57600080fd5b600580546001600160a01b03191690556000600655565b6002546001600160a01b031633146102f957600080fd5b60018054600280546001600160a01b03199081166001600160a01b03841617909155169055565b6004546001600160a01b0316331461033757600080fd5b6003546001600160a01b0316156103955760405162461bcd60e51b815260206004820152601d60248201527f4d75737420617070726f7665206f722072656a6563742066697273742100000060448201526064015b60405180910390fd5b600380546001600160a01b0319166001600160a01b0392909216919091179055565b6002546001600160a01b031633146103ce57600080fd5b600180546001600160a01b0319169055565b6002546001600160a01b031633146103f757600080fd5b60038054600480546001600160a01b03199081166001600160a01b03841617909155169055565b6002546001600160a01b0316331461043557600080fd5b600380546001600160a01b0319169055565b6004546001600160a01b0316331461045e57600080fd5b6001546001600160a01b0316156104b75760405162461bcd60e51b815260206004820152601d60248201527f4d75737420617070726f7665206f722072656a65637420666972737421000000604482015260640161038c565b600180546001600160a01b0319166001600160a01b0392909216919091179055565b6004546001600160a01b031633146104f057600080fd5b600580546001600160a01b0319166001600160a01b039390931692909217909155600655565b80356001600160a01b038116811461052d57600080fd5b919050565b60006020828403121561054457600080fd5b61054d82610516565b9392505050565b6000806040838503121561056757600080fd5b61057083610516565b946020939093013593505050565b60006020828403121561059057600080fd5b8151801515811461054d57600080fdfea264697066735822122012676ebb0d2eb49ae3e9f892456913d5c2a5213105c42ac418e664239e0b662864736f6c634300080e0033",
    "linkReferences": {}
  },
  "methodIdentifiers": {
    "admin()": "f851a440",
    "approveAdmin()": "a11d1375",
    "approveMultisig()": "56778812",
    "confirmWithdrawal()": "359f517e",
    "multisig()": "4783c35b",
    "paymentCurrency()": "3d15cc6d",
    "pendingAdmin()": "26782247",
    "pendingMultisig()": "a1626fb5",
    "pendingWithdrawal()": "7e288822",
    "rejectAdmin()": "b445eae1",
    "rejectMultisig()": "8809fd50",
    "rejectWithdrawal()": "3febacd2",
    "setAdmin(address)": "704b6c02",
    "setMultisig(address)": "f3283fba",
    "withdrawCurrency(address,uint256)": "fb9883cb"
  },
  "id": 7
}