{
  "abi": [
    {
      "inputs": [
        {
          "internalType": "address",
          "name": "_treasury",
          "type": "address"
        },
        {
          "internalType": "address",
          "name": "_paymentCurrecy",
          "type": "address"
        }
      ],
      "stateMutability": "nonpayable",
      "type": "constructor"
    },
    {
      "inputs": [
        {
          "internalType": "address",
          "name": "",
          "type": "address"
        }
      ],
      "name": "accreditedAddresses",
      "outputs": [
        {
          "internalType": "bool",
          "name": "",
          "type": "bool"
        }
      ],
      "stateMutability": "view",
      "type": "function"
    },
    {
      "inputs": [],
      "name": "adjustBase",
      "outputs": [],
      "stateMutability": "nonpayable",
      "type": "function"
    },
    {
      "inputs": [],
      "name": "approveExecutionFee",
      "outputs": [],
      "stateMutability": "nonpayable",
      "type": "function"
    },
    {
      "inputs": [],
      "name": "approveInteractionFee",
      "outputs": [],
      "stateMutability": "nonpayable",
      "type": "function"
    },
    {
      "inputs": [],
      "name": "approvePaymentCurrency",
      "outputs": [],
      "stateMutability": "nonpayable",
      "type": "function"
    },
    {
      "inputs": [],
      "name": "approveTreasury",
      "outputs": [],
      "stateMutability": "nonpayable",
      "type": "function"
    },
    {
      "inputs": [],
      "name": "approveTreasuryCut",
      "outputs": [],
      "stateMutability": "nonpayable",
      "type": "function"
    },
    {
      "inputs": [],
      "name": "base",
      "outputs": [
        {
          "internalType": "uint256",
          "name": "",
          "type": "uint256"
        }
      ],
      "stateMutability": "view",
      "type": "function"
    },
    {
      "inputs": [
        {
          "internalType": "uint256",
          "name": "",
          "type": "uint256"
        }
      ],
      "name": "baseAdjusted",
      "outputs": [
        {
          "internalType": "bool",
          "name": "",
          "type": "bool"
        }
      ],
      "stateMutability": "view",
      "type": "function"
    },
    {
      "inputs": [],
      "name": "baseExecutorCost",
      "outputs": [
        {
          "internalType": "uint256",
          "name": "",
          "type": "uint256"
        }
      ],
      "stateMutability": "view",
      "type": "function"
    },
    {
      "inputs": [],
      "name": "baseInteractionCost",
      "outputs": [
        {
          "internalType": "uint256",
          "name": "",
          "type": "uint256"
        }
      ],
      "stateMutability": "view",
      "type": "function"
    },
    {
      "inputs": [
        {
          "internalType": "uint256",
          "name": "_epoch",
          "type": "uint256"
        },
        {
          "internalType": "address",
          "name": "_rewardToken",
          "type": "address"
        }
      ],
      "name": "claimReward",
      "outputs": [],
      "stateMutability": "nonpayable",
      "type": "function"
    },
    {
      "inputs": [
        {
          "internalType": "address",
          "name": "",
          "type": "address"
        }
      ],
      "name": "claimWhitelist",
      "outputs": [
        {
          "internalType": "bool",
          "name": "",
          "type": "bool"
        }
      ],
      "stateMutability": "view",
      "type": "function"
    },
    {
      "inputs": [
        {
          "internalType": "address",
          "name": "",
          "type": "address"
        }
      ],
      "name": "contractWl",
      "outputs": [
        {
          "internalType": "bool",
          "name": "",
          "type": "bool"
        }
      ],
      "stateMutability": "view",
      "type": "function"
    },
    {
      "inputs": [
        {
          "internalType": "address",
          "name": "swapToken1",
          "type": "address"
        },
        {
          "internalType": "address",
          "name": "swapToken2",
          "type": "address"
        }
      ],
      "name": "createSwap",
      "outputs": [],
      "stateMutability": "nonpayable",
      "type": "function"
    },
    {
      "inputs": [],
      "name": "epochLength",
      "outputs": [
        {
          "internalType": "uint256",
          "name": "",
          "type": "uint256"
        }
      ],
      "stateMutability": "view",
      "type": "function"
    },
    {
      "inputs": [
        {
          "internalType": "address",
          "name": "",
          "type": "address"
        },
        {
          "internalType": "uint256",
          "name": "",
          "type": "uint256"
        }
      ],
      "name": "executionPurchased",
      "outputs": [
        {
          "internalType": "bool",
          "name": "",
          "type": "bool"
        }
      ],
      "stateMutability": "view",
      "type": "function"
    },
    {
      "inputs": [
        {
          "internalType": "address",
          "name": "",
          "type": "address"
        },
        {
          "internalType": "uint256",
          "name": "",
          "type": "uint256"
        }
      ],
      "name": "executionVolume",
      "outputs": [
        {
          "internalType": "uint256",
          "name": "",
          "type": "uint256"
        }
      ],
      "stateMutability": "view",
      "type": "function"
    },
    {
      "inputs": [],
      "name": "executorCost",
      "outputs": [
        {
          "internalType": "uint256",
          "name": "",
          "type": "uint256"
        }
      ],
      "stateMutability": "view",
      "type": "function"
    },
    {
      "inputs": [],
      "name": "fundsForTreasury",
      "outputs": [
        {
          "internalType": "uint256",
          "name": "",
          "type": "uint256"
        }
      ],
      "stateMutability": "view",
      "type": "function"
    },
    {
      "inputs": [],
      "name": "getCurrenEpoch",
      "outputs": [
        {
          "internalType": "uint256",
          "name": "epoch",
          "type": "uint256"
        }
      ],
      "stateMutability": "view",
      "type": "function"
    },
    {
      "inputs": [],
      "name": "interactionCost",
      "outputs": [
        {
          "internalType": "uint256",
          "name": "",
          "type": "uint256"
        }
      ],
      "stateMutability": "view",
      "type": "function"
    },
    {
      "inputs": [
        {
          "internalType": "address",
          "name": "",
          "type": "address"
        },
        {
          "internalType": "uint256",
          "name": "",
          "type": "uint256"
        }
      ],
      "name": "interactionPurchased",
      "outputs": [
        {
          "internalType": "bool",
          "name": "",
          "type": "bool"
        }
      ],
      "stateMutability": "view",
      "type": "function"
    },
    {
      "inputs": [
        {
          "internalType": "address",
          "name": "_token",
          "type": "address"
        },
        {
          "internalType": "uint256",
          "name": "_amount",
          "type": "uint256"
        }
      ],
      "name": "lockCredit",
      "outputs": [],
      "stateMutability": "nonpayable",
      "type": "function"
    },
    {
      "inputs": [],
      "name": "paymentCurrency",
      "outputs": [
        {
          "internalType": "address",
          "name": "",
          "type": "address"
        }
      ],
      "stateMutability": "view",
      "type": "function"
    },
    {
      "inputs": [
        {
          "internalType": "uint256",
          "name": "",
          "type": "uint256"
        }
      ],
      "name": "paymentsMade",
      "outputs": [
        {
          "internalType": "uint256",
          "name": "",
          "type": "uint256"
        }
      ],
      "stateMutability": "view",
      "type": "function"
    },
    {
      "inputs": [],
      "name": "pendingExecutorCost",
      "outputs": [
        {
          "internalType": "uint256",
          "name": "",
          "type": "uint256"
        }
      ],
      "stateMutability": "view",
      "type": "function"
    },
    {
      "inputs": [],
      "name": "pendingInteractionCost",
      "outputs": [
        {
          "internalType": "uint256",
          "name": "",
          "type": "uint256"
        }
      ],
      "stateMutability": "view",
      "type": "function"
    },
    {
      "inputs": [],
      "name": "pendingPaymentCurrency",
      "outputs": [
        {
          "internalType": "address",
          "name": "",
          "type": "address"
        }
      ],
      "stateMutability": "view",
      "type": "function"
    },
    {
      "inputs": [],
      "name": "pendingTreasury",
      "outputs": [
        {
          "internalType": "address",
          "name": "",
          "type": "address"
        }
      ],
      "stateMutability": "view",
      "type": "function"
    },
    {
      "inputs": [],
      "name": "pendingTreasuryCut",
      "outputs": [
        {
          "internalType": "uint256",
          "name": "",
          "type": "uint256"
        }
      ],
      "stateMutability": "view",
      "type": "function"
    },
    {
      "inputs": [],
      "name": "purchaseExecutorPermission",
      "outputs": [],
      "stateMutability": "nonpayable",
      "type": "function"
    },
    {
      "inputs": [],
      "name": "purchaseInteractionPermission",
      "outputs": [],
      "stateMutability": "nonpayable",
      "type": "function"
    },
    {
      "inputs": [],
      "name": "rejectExecutionFee",
      "outputs": [],
      "stateMutability": "nonpayable",
      "type": "function"
    },
    {
      "inputs": [],
      "name": "rejectInteractionFee",
      "outputs": [],
      "stateMutability": "nonpayable",
      "type": "function"
    },
    {
      "inputs": [],
      "name": "rejectPaymentCurrency",
      "outputs": [],
      "stateMutability": "nonpayable",
      "type": "function"
    },
    {
      "inputs": [],
      "name": "rejectTreasury",
      "outputs": [],
      "stateMutability": "nonpayable",
      "type": "function"
    },
    {
      "inputs": [],
      "name": "rejectTreasuryCut",
      "outputs": [],
      "stateMutability": "nonpayable",
      "type": "function"
    },
    {
      "inputs": [
        {
          "internalType": "uint256",
          "name": "_fee",
          "type": "uint256"
        }
      ],
      "name": "setExecutionFee",
      "outputs": [],
      "stateMutability": "nonpayable",
      "type": "function"
    },
    {
      "inputs": [
        {
          "internalType": "uint256",
          "name": "_fee",
          "type": "uint256"
        }
      ],
      "name": "setInteractionFee",
      "outputs": [],
      "stateMutability": "nonpayable",
      "type": "function"
    },
    {
      "inputs": [
        {
          "internalType": "address",
          "name": "_paymentCurrency",
          "type": "address"
        }
      ],
      "name": "setPaymentCurrency",
      "outputs": [],
      "stateMutability": "nonpayable",
      "type": "function"
    },
    {
      "inputs": [
        {
          "internalType": "address",
          "name": "_treasury",
          "type": "address"
        }
      ],
      "name": "setTreasury",
      "outputs": [],
      "stateMutability": "nonpayable",
      "type": "function"
    },
    {
      "inputs": [
        {
          "internalType": "uint256",
          "name": "_treasuryCut",
          "type": "uint256"
        }
      ],
      "name": "setTreasuryCut",
      "outputs": [],
      "stateMutability": "nonpayable",
      "type": "function"
    },
    {
      "inputs": [],
      "name": "startTime",
      "outputs": [
        {
          "internalType": "uint256",
          "name": "",
          "type": "uint256"
        }
      ],
      "stateMutability": "view",
      "type": "function"
    },
    {
      "inputs": [
        {
          "internalType": "address",
          "name": "",
          "type": "address"
        },
        {
          "internalType": "address",
          "name": "",
          "type": "address"
        }
      ],
      "name": "swapAddress",
      "outputs": [
        {
          "internalType": "address",
          "name": "",
          "type": "address"
        }
      ],
      "stateMutability": "view",
      "type": "function"
    },
    {
      "inputs": [
        {
          "internalType": "address",
          "name": "",
          "type": "address"
        },
        {
          "internalType": "address",
          "name": "",
          "type": "address"
        }
      ],
      "name": "swapExistence",
      "outputs": [
        {
          "internalType": "bool",
          "name": "",
          "type": "bool"
        }
      ],
      "stateMutability": "view",
      "type": "function"
    },
    {
      "inputs": [
        {
          "internalType": "uint256",
          "name": "",
          "type": "uint256"
        }
      ],
      "name": "totalExecutionVolume",
      "outputs": [
        {
          "internalType": "uint256",
          "name": "",
          "type": "uint256"
        }
      ],
      "stateMutability": "view",
      "type": "function"
    },
    {
      "inputs": [
        {
          "internalType": "address",
          "name": "",
          "type": "address"
        },
        {
          "internalType": "uint256",
          "name": "",
          "type": "uint256"
        }
      ],
      "name": "totalTokensLocked",
      "outputs": [
        {
          "internalType": "uint256",
          "name": "",
          "type": "uint256"
        }
      ],
      "stateMutability": "view",
      "type": "function"
    },
    {
      "inputs": [],
      "name": "treasury",
      "outputs": [
        {
          "internalType": "address",
          "name": "",
          "type": "address"
        }
      ],
      "stateMutability": "view",
      "type": "function"
    },
    {
      "inputs": [],
      "name": "treasuryCut",
      "outputs": [
        {
          "internalType": "uint256",
          "name": "",
          "type": "uint256"
        }
      ],
      "stateMutability": "view",
      "type": "function"
    },
    {
      "inputs": [
        {
          "internalType": "address",
          "name": "_token",
          "type": "address"
        }
      ],
      "name": "unlockCredit",
      "outputs": [],
      "stateMutability": "nonpayable",
      "type": "function"
    },
    {
      "inputs": [
        {
          "internalType": "address",
          "name": "_token",
          "type": "address"
        }
      ],
      "name": "updateVolumeTracker",
      "outputs": [],
      "stateMutability": "nonpayable",
      "type": "function"
    },
    {
      "inputs": [
        {
          "internalType": "address",
          "name": "",
          "type": "address"
        },
        {
          "internalType": "address",
          "name": "",
          "type": "address"
        }
      ],
      "name": "userTokensLocked",
      "outputs": [
        {
          "internalType": "uint256",
          "name": "",
          "type": "uint256"
        }
      ],
      "stateMutability": "view",
      "type": "function"
    },
    {
      "inputs": [
        {
          "internalType": "address",
          "name": "",
          "type": "address"
        },
        {
          "internalType": "uint256",
          "name": "",
          "type": "uint256"
        },
        {
          "internalType": "address",
          "name": "",
          "type": "address"
        }
      ],
      "name": "userTokensLockedEpoch",
      "outputs": [
        {
          "internalType": "uint256",
          "name": "",
          "type": "uint256"
        }
      ],
      "stateMutability": "view",
      "type": "function"
    }
  ],
  "bytecode": {
    "object": "0x60806040523480156200001157600080fd5b5060405162004aaf38038062004aaf8339810160408190526200003491620000cb565b62015180600e55600180546001600160a01b039384166001600160a01b03199182161782556005600b55600380549390941692169190911790915542600d556000805260186020527f999d26de3473317ead3eeaf34ca78057f1439db67b6953469c3c96ce9caf6bd7805460ff1916909117905562000103565b80516001600160a01b0381168114620000c657600080fd5b919050565b60008060408385031215620000df57600080fd5b620000ea83620000ae565b9150620000fa60208401620000ae565b90509250929050565b61499c80620001136000396000f3fe60806040523480156200001157600080fd5b5060043610620003875760003560e01c80637af3b2e511620001dc578063b3f3cf001162000119578063d8be06d411620000af578063f0f442601162000086578063f0f4426014620007f6578063f11d0d32146200080d578063fa1846b4146200083b578063fbcd5ae9146200084557600080fd5b8063d8be06d414620007af578063d8e3978714620007b9578063e70eb39214620007df57600080fd5b8063ba57c90611620000f0578063ba57c906146200077d578063c01d22221462000787578063c3aa34cf1462000791578063cc04a529146200079b57600080fd5b8063b3f3cf00146200073b578063b6a473861462000745578063b6f17d8b146200074f57600080fd5b806387f364df116200018f578063976d86051162000166578063976d860514620006e1578063ac05bb8614620006eb578063ad62a8e8146200070e578063b0e266fd146200073157600080fd5b806387f364df14620006825780638dae19ee1462000699578063928a55c314620006ca57600080fd5b80637af3b2e514620005ec5780637c04d3dd14620005f65780637fe21b69146200062457806380907b88146200063b578063818684ef146200064557806381a86248146200065c57600080fd5b80633d15cc6d11620002c85780635d7c3f38116200025e57806364b6272d116200023557806364b6272d14620005c4578063746922d614620005ce5780637597bc0114620005d857806378e9792514620005e257600080fd5b80635d7c3f38146200058f57806361d027b314620005a6578063640c9a6d14620005ba57600080fd5b80634c4a3fb3116200029f5780634c4a3fb3146200053a5780635001f3b51462000544578063572c82c1146200054e57806357d775f8146200058557600080fd5b80633d15cc6d1462000505578063479b5f0114620005195780634981e2c4146200053057600080fd5b806324d7105f116200033e5780632db8e0bd11620003155780632db8e0bd14620004835780632ed6b75d14620004b757806337a063d214620004e457806339766adb14620004fb57600080fd5b806324d7105f1462000449578063250ea3a51462000453578063287001d2146200045d57600080fd5b806306243ca4146200038c57806312f753f714620003d257806315e771c214620003eb57806317ed8c0114620003f75780632120680414620004015780632469eecc1462000418575b600080fd5b620003bd6200039d36600462001ea5565b601660209081526000928352604080842090915290825290205460ff1681565b60405190151581526020015b60405180910390f35b620003dc60065481565b604051908152602001620003c9565b620003f56200086b565b005b620003f56200092a565b620003f56200041236600462001ed4565b620009c9565b620003bd6200042936600462001eee565b601260209081526000928352604080842090915290825290205460ff1681565b620003f562000a92565b620003dc62000b51565b620003bd6200046e36600462001f2c565b60116020526000908152604090205460ff1681565b620003dc6200049436600462001f53565b601d60209081526000938452604080852082529284528284209052825290205481565b600054620004cb906001600160a01b031681565b6040516001600160a01b039091168152602001620003c9565b620003f5620004f536600462001ed4565b62000b77565b620003f562000c37565b600354620004cb906001600160a01b031681565b620003f56200052a36600462001eee565b62000e4a565b620003dc60045481565b620003dc600c5481565b620003dc600f5481565b620004cb6200055f36600462001eee565b60136020908152600092835260408084209091529082529020546001600160a01b031681565b620003dc600e5481565b620003f5620005a036600462001ea5565b62000f71565b600154620004cb906001600160a01b031681565b620003dc600a5481565b620003f562001078565b620003dc600b5481565b620003dc60055481565b620003dc600d5481565b620003f562001248565b620003dc6200060736600462001eee565b601c60209081526000928352604080842090915290825290205481565b620003f56200063536600462001f2c565b620012ed565b620003f5620013d3565b620003f56200065636600462001f2c565b62001478565b620003bd6200066d36600462001ed4565b60186020526000908152604090205460ff1681565b620003f56200069336600462001ed4565b6200153a565b620003bd620006aa36600462001ea5565b601560209081526000928352604080842090915290825290205460ff1681565b620003f5620006db36600462001f2c565b620015fa565b620003f5620016f2565b620003dc620006fc36600462001ed4565b60196020526000908152604090205481565b620003dc6200071f36600462001ed4565b601a6020526000908152604090205481565b620003f56200179c565b620003f56200183b565b620003dc60095481565b620003dc6200076036600462001ea5565b601760209081526000928352604080842090915290825290205481565b620003dc60085481565b620003f562001a0b565b620003f562001aaa565b600254620004cb906001600160a01b031681565b620003f562001b54565b620003bd620007ca36600462001f2c565b60146020526000908152604090205460ff1681565b620003f5620007f036600462001f9a565b62001bf9565b620003f56200080736600462001f2c565b62001d98565b620003dc6200081e36600462001ea5565b601b60209081526000928352604080842090915290825290205481565b620003dc60075481565b620003bd6200085636600462001f2c565b60106020526000908152604090205460ff1681565b600160009054906101000a90046001600160a01b03166001600160a01b0316634783c35b6040518163ffffffff1660e01b8152600401602060405180830381865afa158015620008bf573d6000803e3d6000fd5b505050506040513d601f19601f82011682018060405250810190620008e5919062001fc2565b6001600160a01b0316336001600160a01b0316146200090357600080fd5b60028054600380546001600160a01b03199081166001600160a01b03841617909155169055565b600160009054906101000a90046001600160a01b03166001600160a01b0316634783c35b6040518163ffffffff1660e01b8152600401602060405180830381865afa1580156200097e573d6000803e3d6000fd5b505050506040513d601f19601f82011682018060405250810190620009a4919062001fc2565b6001600160a01b0316336001600160a01b031614620009c257600080fd5b6000600a55565b60075415620009f55760405162461bcd60e51b8152600401620009ec9062001fe2565b60405180910390fd5b600160009054906101000a90046001600160a01b03166001600160a01b031663f851a4406040518163ffffffff1660e01b8152600401602060405180830381865afa15801562000a49573d6000803e3d6000fd5b505050506040513d601f19601f8201168201806040525081019062000a6f919062001fc2565b6001600160a01b0316336001600160a01b03161462000a8d57600080fd5b600755565b600160009054906101000a90046001600160a01b03166001600160a01b0316634783c35b6040518163ffffffff1660e01b8152600401602060405180830381865afa15801562000ae6573d6000803e3d6000fd5b505050506040513d601f19601f8201168201806040525081019062000b0c919062001fc2565b6001600160a01b0316336001600160a01b03161462000b2a57600080fd5b60008054600180546001600160a01b03199081166001600160a01b03841617909155169055565b6000600e54600d544262000b6691906200202f565b62000b72919062002049565b905090565b6004541562000b9a5760405162461bcd60e51b8152600401620009ec9062001fe2565b600160009054906101000a90046001600160a01b03166001600160a01b031663f851a4406040518163ffffffff1660e01b8152600401602060405180830381865afa15801562000bee573d6000803e3d6000fd5b505050506040513d601f19601f8201168201806040525081019062000c14919062001fc2565b6001600160a01b0316336001600160a01b03161462000c3257600080fd5b600455565b6000600e54600d544262000c4c91906200202f565b62000c58919062002049565b60008181526018602052604090205490915060ff161562000c7857600080fd5b600060198162000c8a6001856200202f565b8152602001908152602001600020549050600f5481111562000cd057612710600f54612bf262000cbb91906200206c565b62000cc7919062002049565b600f5562000dd6565b6064600f54603262000ce391906200206c565b62000cef919062002049565b81111562000d3557600f546127109062000d0c836104e26200206c565b62000d18919062002049565b62000d26906127106200208e565b600f5462000cbb91906200206c565b6064600f54603262000d4891906200206c565b62000d54919062002049565b81101562000dd6576127106103e8600f54836103e862000d7591906200206c565b62000d81919062002049565b62000d8f906103e86200202f565b62000d9d906104e26200206c565b62000da9919062002049565b62000db7906127106200202f565b600f5462000dc691906200206c565b62000dd2919062002049565b600f555b6064600f54101562000de8576064600f555b6064600f5460055462000dfc91906200206c565b62000e08919062002049565b600655600f5460085460649162000e1f916200206c565b62000e2b919062002049565b600955506000908152601860205260409020805460ff19166001179055565b6001600160a01b0380831660009081526012602090815260408083209385168352929052205460ff161562000e7e57600080fd5b6001600160a01b0380821660009081526012602090815260408083209386168352929052205460ff161562000eb257600080fd5b6000828260405162000ec49062001e7e565b6001600160a01b03928316815291166020820152604001604051809103906000f08015801562000ef8573d6000803e3d6000fd5b506001600160a01b0393841660008181526012602090815260408083209688168084529682528083208054600160ff199182168117909255959098168084526014835281842080549096169098179094559181526013825282812094815293905290912080546001600160a01b03191690921790915550565b6001600160a01b03821660009081526011602052604090205460ff1662000f9757600080fd5b6000600e54600d544262000fac91906200202f565b62000fb8919062002049565b336000908152601c602090815260408083206001600160a01b038816845290915281208054929350849290919062000ff29084906200208e565b9091555050336000908152601d6020908152604080832084845282528083206001600160a01b038716845290915281208054849290620010349084906200208e565b90915550506001600160a01b0383166000908152601b60209081526040808320848452909152812080548492906200106e9084906200208e565b9091555050505050565b6064600654600b546200108c91906200206c565b62001098919062002049565b600c6000828254620010ab91906200208e565b9091555050600e54600d5460009190620010c690426200202f565b620010d2919062002049565b60008181526018602052604090205490915060ff166200114257306001600160a01b03166339766adb6040518163ffffffff1660e01b8152600401600060405180830381600087803b1580156200112857600080fd5b505af11580156200113d573d6000803e3d6000fd5b505050505b6064600654600b5460646200115891906200202f565b6200116491906200206c565b62001170919062002049565b6000828152601a602052604081208054909190620011909084906200208e565b90915550506003546006546040516323b872dd60e01b81526000926001600160a01b0316916323b872dd91620011ce913391309190600401620020a9565b6020604051808303816000875af1158015620011ee573d6000803e3d6000fd5b505050506040513d601f19601f82011682018060405250810190620012149190620020cd565b9050806200122157600080fd5b5033600090815260156020908152604080832093835292905220805460ff19166001179055565b600160009054906101000a90046001600160a01b03166001600160a01b0316634783c35b6040518163ffffffff1660e01b8152600401602060405180830381865afa1580156200129c573d6000803e3d6000fd5b505050506040513d601f19601f82011682018060405250810190620012c2919062001fc2565b6001600160a01b0316336001600160a01b031614620012e057600080fd5b600a8054600b5560009055565b6002546001600160a01b031615620013195760405162461bcd60e51b8152600401620009ec9062001fe2565b600160009054906101000a90046001600160a01b03166001600160a01b031663f851a4406040518163ffffffff1660e01b8152600401602060405180830381865afa1580156200136d573d6000803e3d6000fd5b505050506040513d601f19601f8201168201806040525081019062001393919062001fc2565b6001600160a01b0316336001600160a01b031614620013b157600080fd5b600280546001600160a01b0319166001600160a01b0392909216919091179055565b600160009054906101000a90046001600160a01b03166001600160a01b0316634783c35b6040518163ffffffff1660e01b8152600401602060405180830381865afa15801562001427573d6000803e3d6000fd5b505050506040513d601f19601f820116820180604052508101906200144d919062001fc2565b6001600160a01b0316336001600160a01b0316146200146b57600080fd5b6007805460085560009055565b3360009081526014602052604090205460ff166200149557600080fd5b6001600160a01b03811660009081526011602052604090205460ff16620014bb57600080fd5b6000600e54600d5442620014d091906200202f565b620014dc919062002049565b6001600160a01b038316600090815260176020908152604080832084845290915281208054929350906200151083620020f1565b909155505060008181526019602052604081208054916200153183620020f1565b91905055505050565b600a54156200155d5760405162461bcd60e51b8152600401620009ec9062001fe2565b600160009054906101000a90046001600160a01b03166001600160a01b031663f851a4406040518163ffffffff1660e01b8152600401602060405180830381865afa158015620015b1573d6000803e3d6000fd5b505050506040513d601f19601f82011682018060405250810190620015d7919062001fc2565b6001600160a01b0316336001600160a01b031614620015f557600080fd5b600a55565b6000600e54600d54426200160f91906200202f565b6200161b919062002049565b336000908152601d6020908152604080832084845282528083206001600160a01b0387168452909152902054909150156200165557600080fd5b336000818152601c602090815260408083206001600160a01b03871680855292528083208054939055516323b872dd60e01b8152919290916323b872dd91620016a6913091908690600401620020a9565b6020604051808303816000875af1158015620016c6573d6000803e3d6000fd5b505050506040513d601f19601f82011682018060405250810190620016ec9190620020cd565b50505050565b600160009054906101000a90046001600160a01b03166001600160a01b0316634783c35b6040518163ffffffff1660e01b8152600401602060405180830381865afa15801562001746573d6000803e3d6000fd5b505050506040513d601f19601f820116820180604052508101906200176c919062001fc2565b6001600160a01b0316336001600160a01b0316146200178a57600080fd5b600280546001600160a01b0319169055565b600160009054906101000a90046001600160a01b03166001600160a01b0316634783c35b6040518163ffffffff1660e01b8152600401602060405180830381865afa158015620017f0573d6000803e3d6000fd5b505050506040513d601f19601f8201168201806040525081019062001816919062001fc2565b6001600160a01b0316336001600160a01b0316146200183457600080fd5b6000600455565b6064600954600b546200184f91906200206c565b6200185b919062002049565b600c60008282546200186e91906200208e565b9091555050600e54600d54600091906200188990426200202f565b62001895919062002049565b60008181526018602052604090205490915060ff166200190557306001600160a01b03166339766adb6040518163ffffffff1660e01b8152600401600060405180830381600087803b158015620018eb57600080fd5b505af115801562001900573d6000803e3d6000fd5b505050505b6064600954600b5460646200191b91906200202f565b6200192791906200206c565b62001933919062002049565b6000828152601a602052604081208054909190620019539084906200208e565b90915550506003546009546040516323b872dd60e01b81526000926001600160a01b0316916323b872dd9162001991913391309190600401620020a9565b6020604051808303816000875af1158015620019b1573d6000803e3d6000fd5b505050506040513d601f19601f82011682018060405250810190620019d79190620020cd565b905080620019e457600080fd5b5033600090815260166020908152604080832093835292905220805460ff19166001179055565b600160009054906101000a90046001600160a01b03166001600160a01b0316634783c35b6040518163ffffffff1660e01b8152600401602060405180830381865afa15801562001a5f573d6000803e3d6000fd5b505050506040513d601f19601f8201168201806040525081019062001a85919062001fc2565b6001600160a01b0316336001600160a01b03161462001aa357600080fd5b6000600755565b600160009054906101000a90046001600160a01b03166001600160a01b0316634783c35b6040518163ffffffff1660e01b8152600401602060405180830381865afa15801562001afe573d6000803e3d6000fd5b505050506040513d601f19601f8201168201806040525081019062001b24919062001fc2565b6001600160a01b0316336001600160a01b03161462001b4257600080fd5b600080546001600160a01b0319169055565b600160009054906101000a90046001600160a01b03166001600160a01b0316634783c35b6040518163ffffffff1660e01b8152600401602060405180830381865afa15801562001ba8573d6000803e3d6000fd5b505050506040513d601f19601f8201168201806040525081019062001bce919062001fc2565b6001600160a01b0316336001600160a01b03161462001bec57600080fd5b6004805460055560009055565b6001600160a01b03811660009081526011602052604090205460ff1662001c1f57600080fd5b6000600e54600d544262001c3491906200202f565b62001c40919062002049565b6001600160a01b0383166000818152601b602090815260408083208584528252808320548884526019835281842054858552601784528285208a8652845282852054601a855283862054338752601d86528487208988528652848720978752969094529184205495965092949293909262001cbc91906200206c565b62001cc891906200206c565b62001cd4919062002049565b62001ce0919062002049565b336000818152601d6020908152604080832087845282528083206001600160a01b038981168552925280832083905560035490516323b872dd60e01b815294955091939116916323b872dd9162001d3e9130918790600401620020a9565b6020604051808303816000875af115801562001d5e573d6000803e3d6000fd5b505050506040513d601f19601f8201168201806040525081019062001d849190620020cd565b90508062001d9157600080fd5b5050505050565b6000546001600160a01b03161562001dc45760405162461bcd60e51b8152600401620009ec9062001fe2565b600160009054906101000a90046001600160a01b03166001600160a01b031663f851a4406040518163ffffffff1660e01b8152600401602060405180830381865afa15801562001e18573d6000803e3d6000fd5b505050506040513d601f19601f8201168201806040525081019062001e3e919062001fc2565b6001600160a01b0316336001600160a01b03161462001e5c57600080fd5b600080546001600160a01b0319166001600160a01b0392909216919091179055565b612859806200210e83390190565b6001600160a01b038116811462001ea257600080fd5b50565b6000806040838503121562001eb957600080fd5b823562001ec68162001e8c565b946020939093013593505050565b60006020828403121562001ee757600080fd5b5035919050565b6000806040838503121562001f0257600080fd5b823562001f0f8162001e8c565b9150602083013562001f218162001e8c565b809150509250929050565b60006020828403121562001f3f57600080fd5b813562001f4c8162001e8c565b9392505050565b60008060006060848603121562001f6957600080fd5b833562001f768162001e8c565b925060208401359150604084013562001f8f8162001e8c565b809150509250925092565b6000806040838503121562001fae57600080fd5b82359150602083013562001f218162001e8c565b60006020828403121562001fd557600080fd5b815162001f4c8162001e8c565b6020808252601d908201527f4d75737420617070726f7665206f722072656a65637420666972737421000000604082015260600190565b634e487b7160e01b600052601160045260246000fd5b60008282101562002044576200204462002019565b500390565b6000826200206757634e487b7160e01b600052601260045260246000fd5b500490565b600081600019048311821515161562002089576200208962002019565b500290565b60008219821115620020a457620020a462002019565b500190565b6001600160a01b039384168152919092166020820152604081019190915260600190565b600060208284031215620020e057600080fd5b8151801515811462001f4c57600080fd5b60006001820162002106576200210662002019565b506001019056fe60e060405260016000553480156200001657600080fd5b506040516200285938038062002859833981016040819052620000399162000072565b336080526001600160a01b0391821660a0521660c052620000aa565b80516001600160a01b03811681146200006d57600080fd5b919050565b600080604083850312156200008657600080fd5b620000918362000055565b9150620000a16020840162000055565b90509250929050565b60805160a05160c05161270162000158600039600081816104e4015281816105590152818161091001528181610ccc0152818161122601528181611686015281816119a00152611df901526000818161026101528181610523015281816108da01528181610c96015281816111f0015281816116500152818161196a0152611dc30152600081816103be01528181611297015281816112c7015281816116f7015261172701526127016000f3fe608060405234801561001057600080fd5b50600436106101375760003560e01c80638e8b7381116100b8578063c6316d111161007c578063c6316d11146103e0578063c7481ead1461041d578063dd37caea14610457578063e4848c7914610488578063e833365a146104cc578063eb2c56dd146104df57600080fd5b80638e8b7381146102cc5780639909ad4914610306578063a6d50cb914610372578063be1d5671146103a6578063c45a0155146103b957600080fd5b80636c6473b8116100ff5780636c6473b81461020257806378d3436e146102155780637a3120b5146102495780638230e6021461025c5780638734e99e1461029b57600080fd5b80631d4205d21461013c57806320515630146101515780633f6ff9f4146101a357806358aff407146101c4578063643745fb146101d7575b600080fd5b61014f61014a366004612247565b610506565b005b61018e61015f3660046122ad565b600b60209081526000948552604080862082529385528385208152918452828420909152825290205460ff1681565b60405190151581526020015b60405180910390f35b6101b66101b136600461237a565b6108bb565b60405190815260200161019a565b6101b66101d23660046123c1565b610c77565b6101b66101e536600461245e565b600160209081526000928352604080842090915290825290205481565b61014f610210366004612491565b6111d3565b61018e6102233660046124ca565b600560209081526000938452604080852082529284528284209052825290205460ff1681565b61014f610257366004612491565b611633565b6102837f000000000000000000000000000000000000000000000000000000000000000081565b6040516001600160a01b03909116815260200161019a565b6101b66102a93660046124ca565b600460209081526000938452604080852082529284528284209052825290205481565b6101b66102da3660046122ad565b600860209081526000948552604080862082529385528385208152918452828420909152825290205481565b6103536103143660046122ad565b6003602090815260009485526040808620825293855283852081529184528284209091528252902080546001909101546001600160a01b039091169082565b604080516001600160a01b03909316835260208301919091520161019a565b61018e6103803660046124ca565b600660209081526000938452604080852082529284528284209052825290205460ff1681565b61014f6103b43660046124ff565b61194d565b6102837f000000000000000000000000000000000000000000000000000000000000000081565b61018e6103ee3660046122ad565b600a60209081526000948552604080862082529385528385208152918452828420909152825290205460ff1681565b6101b661042b3660046122ad565b600960209081526000948552604080862082529385528385208152918452828420909152825290205481565b6101b66104653660046124ca565b600760209081526000938452604080852082529284528284209052825290205481565b6103536104963660046124ca565b6002602090815260009384526040808520825292845282842090528252902080546001909101546001600160a01b039091169082565b6101b66104da36600461237a565b611da4565b6102837f000000000000000000000000000000000000000000000000000000000000000081565b6001600080828254610518919061258d565b9091555050600054867f00000000000000000000000000000000000000000000000000000000000000006001600160a01b03908116908216148061058d57507f00000000000000000000000000000000000000000000000000000000000000006001600160a01b0316816001600160a01b0316145b61059657600080fd5b8543106105d25760405162461bcd60e51b8152602060048201526005602482015264494245203160d81b60448201526064015b60405180910390fd5b856105de43600361258d565b10156106145760405162461bcd60e51b815260206004820152600560248201526424a122901960d91b60448201526064016105c9565b60008681526004602090815260408083206001600160a01b038c16845282528083208884529091529020546001600160801b038516146106885760405162461bcd60e51b815260206004820152600f60248201526e125b5c1c9bdc195c88185b5bdd5b9d608a1b60448201526064016105c9565b84836001600160801b031611156106d05760405162461bcd60e51b815260206004820152600c60248201526b125b5c1c9bdc195c88189a5960a21b60448201526064016105c9565b60008681526002602090815260408083206001600160a01b038c1680855290835281842089855283528184208a8552600584528285209185529083528184208985529092529091205460ff161561076b57836001600160801b031681600101541161076b5760405162461bcd60e51b815260206004820152600b60248201526a135d5cdd081bdd5d189a5960aa1b60448201526064016105c9565b80546001600160a01b039081166000908152600160209081526040808320938c16835292905290812080546001600160801b03881692906107ad90849061258d565b90915550506001600160801b03841660018083019190915581546001600160a01b03191633908117835560008981526005602090815260408083206001600160a01b038f811685529083528184208c855290925291829020805460ff1916909417909355516323b872dd60e01b8152918a16916323b872dd9161085e9130908a906004016001600160a01b0393841681529190921660208201526001600160801b0391909116604082015260600190565b6020604051808303816000875af115801561087d573d6000803e3d6000fd5b505050506040513d601f19601f820116820180604052508101906108a191906125a5565b50505060005481146108b257600080fd5b50505050505050565b600060016000808282546108cf919061258d565b9091555050600054847f00000000000000000000000000000000000000000000000000000000000000006001600160a01b03908116908216148061094457507f00000000000000000000000000000000000000000000000000000000000000006001600160a01b0316816001600160a01b0316145b61094d57600080fd5b600a6000805b82811015610bea578781600a811061096d5761096d6125ce565b6020020151158061099257508681600a811061098b5761098b6125ce565b6020020151155b610bea57600660008983600a81106109ac576109ac6125ce565b6020020151815260200190815260200160002060008a6001600160a01b03166001600160a01b0316815260200190815260200160002060008883600a81106109f6576109f66125ce565b6020908102919091015182528101919091526040016000205460ff1615610a1c57600080fd5b6000600260008a84600a8110610a3457610a346125ce565b6020020151815260200190815260200160002060008b6001600160a01b03166001600160a01b0316815260200190815260200160002060008984600a8110610a7e57610a7e6125ce565b602090810291909101518252818101929092526040908101600020815180830190925280546001600160a01b03168083526001909101549282019290925291503314610ac957600080fd5b600760008a84600a8110610adf57610adf6125ce565b6020020151815260200190815260200160002060008b6001600160a01b03166001600160a01b0316815260200190815260200160002060008984600a8110610b2957610b296125ce565b602002015181526020019081526020016000205483610b48919061258d565b92506001600660008b85600a8110610b6257610b626125ce565b6020020151815260200190815260200160002060008c6001600160a01b03166001600160a01b0316815260200190815260200160002060008a85600a8110610bac57610bac6125ce565b6020020151815260200190815260200160002060006101000a81548160ff021916908315150217905550508080610be2906125e4565b915050610953565b5060405163a9059cbb60e01b8152336004820152602481018290526001600160a01b0389169063a9059cbb906044016020604051808303816000875af1158015610c38573d6000803e3d6000fd5b505050506040513d601f19601f82011682018060405250810190610c5c91906125a5565b50935050506000548114610c6f57600080fd5b509392505050565b60006001600080828254610c8b919061258d565b9091555050600054857f00000000000000000000000000000000000000000000000000000000000000006001600160a01b039081169082161480610d0057507f00000000000000000000000000000000000000000000000000000000000000006001600160a01b0316816001600160a01b0316145b610d0957600080fd5b600a6000805b828110156111455760008982600a8110610d2b57610d2b6125ce565b60200201516001600160a01b03161461114557600b60008983600a8110610d5457610d546125ce565b6020020151815260200190815260200160002060008a83600a8110610d7b57610d7b6125ce565b60200201516001600160a01b03166001600160a01b0316815260200190815260200160002060008b6001600160a01b03166001600160a01b0316815260200190815260200160002060008883600a8110610dd757610dd76125ce565b6020908102919091015182528101919091526040016000205460ff1615610dfd57600080fd5b6000600360008a84600a8110610e1557610e156125ce565b6020020151815260200190815260200160002060008b84600a8110610e3c57610e3c6125ce565b60200201516001600160a01b03166001600160a01b0316815260200190815260200160002060008c6001600160a01b03166001600160a01b0316815260200190815260200160002060008984600a8110610e9857610e986125ce565b602090810291909101518252818101929092526040908101600020815180830190925280546001600160a01b03168083526001909101549282019290925291503314610ee357600080fd5b6064600960008b85600a8110610efb57610efb6125ce565b6020020151815260200190815260200160002060008c85600a8110610f2257610f226125ce565b60200201516001600160a01b03166001600160a01b0316815260200190815260200160002060008d6001600160a01b03166001600160a01b0316815260200190815260200160002060008a85600a8110610f7e57610f7e6125ce565b60200201518152602001908152602001600020546001600160801b03166080600960008d87600a8110610fb357610fb36125ce565b6020020151815260200190815260200160002060008e87600a8110610fda57610fda6125ce565b60200201516001600160a01b03166001600160a01b0316815260200190815260200160002060008f6001600160a01b03166001600160a01b0316815260200190815260200160002060008c87600a8110611036576110366125ce565b6020020151815260200190815260200160002054901c61105691906125fd565b6110609190612632565b61106a908461258d565b92506001600b60008b85600a8110611084576110846125ce565b6020020151815260200190815260200160002060008c85600a81106110ab576110ab6125ce565b60200201516001600160a01b03166001600160a01b0316815260200190815260200160002060008d6001600160a01b03166001600160a01b0316815260200190815260200160002060008a85600a8110611107576111076125ce565b6020020151815260200190815260200160002060006101000a81548160ff02191690831515021790555050808061113d906125e4565b915050610d0f565b5060405163a9059cbb60e01b8152336004820152602481018290526001600160a01b038a169063a9059cbb906044016020604051808303816000875af1158015611193573d6000803e3d6000fd5b505050506040513d601f19601f820116820180604052508101906111b791906125a5565b509350505060005481146111ca57600080fd5b50949350505050565b60016000808282546111e5919061258d565b9091555050600054847f00000000000000000000000000000000000000000000000000000000000000006001600160a01b03908116908216148061125a57507f00000000000000000000000000000000000000000000000000000000000000006001600160a01b0316816001600160a01b0316145b61126357600080fd5b6001607f1b841061127357600080fd5b6001607f1b851061128357600080fd5b33803b9063ffffffff821615806113b457507f00000000000000000000000000000000000000000000000000000000000000006001600160a01b03166306243ca4337f00000000000000000000000000000000000000000000000000000000000000006001600160a01b031663250ea3a56040518163ffffffff1660e01b8152600401602060405180830381865afa158015611323573d6000803e3d6000fd5b505050506040513d601f19601f820116820180604052508101906113479190612646565b6040516001600160e01b031960e085901b1681526001600160a01b0390921660048301526024820152604401602060405180830381865afa158015611390573d6000803e3d6000fd5b505050506040513d601f19601f820116820180604052508101906113b491906125a5565b6113bd57600080fd5b608085901b6064886113cf888361265f565b6113d991906125fd565b6113e39190612632565b1780600860006113f443600361258d565b81526020808201929092526040908101600090812033825283528181206001600160a01b038e16825283528181208b8252909252902055606488611438888361265f565b61144291906125fd565b61144c9190612632565b6004600061145b43600361258d565b8152602080820192909252604090810160009081206001600160a01b038e16825283528181208b82529092528120805490919061149990849061258d565b90915550606490506114ab89886125fd565b6114b59190612632565b600760006114c443600361258d565b8152602080820192909252604090810160009081206001600160a01b038e16825283528181208b82529092528120805490919061150290849061258d565b90915550506040516323b872dd60e01b8152336004820152306024820152604481018990526001600160a01b038a16906323b872dd906064016020604051808303816000875af115801561155a573d6000803e3d6000fd5b505050506040513d601f19601f8201168201806040525081019061157e91906125a5565b507f9942c457cf20f7b4f377c6d4dfc062c302a23e9e5e47211324338dcc21c2929a336115ac43600361258d565b8960646115b98d8c6125fd565b6115c39190612632565b60648d6115d08d8361265f565b6115da91906125fd565b6115e49190612632565b604080516001600160a01b0390961686526020860194909452928401919091526060830152608082015260a0015b60405180910390a150505050600054811461162c57600080fd5b5050505050565b6001600080828254611645919061258d565b9091555050600054847f00000000000000000000000000000000000000000000000000000000000000006001600160a01b0390811690821614806116ba57507f00000000000000000000000000000000000000000000000000000000000000006001600160a01b0316816001600160a01b0316145b6116c357600080fd5b6001607f1b84106116d357600080fd5b6001607f1b85106116e357600080fd5b33803b9063ffffffff8216158061181457507f00000000000000000000000000000000000000000000000000000000000000006001600160a01b03166306243ca4337f00000000000000000000000000000000000000000000000000000000000000006001600160a01b031663250ea3a56040518163ffffffff1660e01b8152600401602060405180830381865afa158015611783573d6000803e3d6000fd5b505050506040513d601f19601f820116820180604052508101906117a79190612646565b6040516001600160e01b031960e085901b1681526001600160a01b0390921660048301526024820152604401602060405180830381865afa1580156117f0573d6000803e3d6000fd5b505050506040513d601f19601f8201168201806040525081019061181491906125a5565b61181d57600080fd5b608085901b8717806009600061183443600361258d565b815260208082019290925260409081016000908120338083529084528282206001600160a01b038f168084529085528383208d84529094529082902093909355516323b872dd60e01b81526004810192909252306024830152604482018a9052906323b872dd906064016020604051808303816000875af11580156118bd573d6000803e3d6000fd5b505050506040513d601f19601f820116820180604052508101906118e191906125a5565b507f5e84db0457363f9e88be91c7fa55664e1be42c4625ad80334d3b56858cf092203361190f43600361258d565b604080516001600160a01b03909316835260208301919091528101899052608083811c60608301526001600160801b0384169082015260a001611612565b600160008082825461195f919061258d565b9091555050600054867f00000000000000000000000000000000000000000000000000000000000000006001600160a01b0390811690821614806119d457507f00000000000000000000000000000000000000000000000000000000000000006001600160a01b0316816001600160a01b0316145b6119dd57600080fd5b854310611a145760405162461bcd60e51b8152602060048201526005602482015264494245203160d81b60448201526064016105c9565b85611a2043600361258d565b1015611a565760405162461bcd60e51b815260206004820152600560248201526424a122901960d91b60448201526064016105c9565b60008681526009602090815260408083206001600160a01b03808e168552908352818420908c16845282528083208884529091529020546001600160801b03858116911614611ad95760405162461bcd60e51b815260206004820152600f60248201526e125b5c1c9bdc195c88185b5bdd5b9d608a1b60448201526064016105c9565b84836001600160801b03161115611b215760405162461bcd60e51b815260206004820152600c60248201526b125b5c1c9bdc195c88189a5960a21b60448201526064016105c9565b60008681526003602090815260408083206001600160a01b03808e16808652918452828520908d168086529084528285208a865284528285208b8652600a855283862092865291845282852090855283528184208985529092529091205460ff1615611bd157836001600160801b0316816001015411611bd15760405162461bcd60e51b815260206004820152600b60248201526a135d5cdd081bdd5d189a5960aa1b60448201526064016105c9565b80546001600160a01b039081166000908152600160209081526040808320938c16835292905290812080546001600160801b0388169290611c1390849061258d565b92505081905550836001600160801b03168160010181905550338160000160006101000a8154816001600160a01b0302191690836001600160a01b031602179055506001600a600089815260200190815260200160002060008c6001600160a01b03166001600160a01b0316815260200190815260200160002060008b6001600160a01b03166001600160a01b03168152602001908152602001600020600088815260200190815260200160002060006101000a81548160ff021916908315150217905550876001600160a01b03166323b872dd3330670de0b6b3a7640000888a611cfe9190612676565b611d0891906126a5565b6040516001600160e01b031960e086901b1681526001600160a01b0393841660048201529290911660248301526001600160801b031660448201526064016020604051808303816000875af1158015611d65573d6000803e3d6000fd5b505050506040513d601f19601f82011682018060405250810190611d8991906125a5565b5050506000548114611d9a57600080fd5b5050505050505050565b60006001600080828254611db8919061258d565b9091555050600054847f00000000000000000000000000000000000000000000000000000000000000006001600160a01b039081169082161480611e2d57507f00000000000000000000000000000000000000000000000000000000000000006001600160a01b0316816001600160a01b0316145b611e3657600080fd5b600a6000805b82811015610bea57600560008983600a8110611e5a57611e5a6125ce565b6020020151815260200190815260200160002060008a6001600160a01b03166001600160a01b0316815260200190815260200160002060008883600a8110611ea457611ea46125ce565b6020908102919091015182528101919091526040016000205460ff1615611f4f57600860008983600a8110611edb57611edb6125ce565b602090810291909101518252818101929092526040908101600090812033825283528181206001600160a01b038d1682529092528120908883600a8110611f2457611f246125ce565b60200201518152602001908152602001600020546001600160801b031682611f4c919061258d565b91505b600a60008983600a8110611f6557611f656125ce565b602090810291909101518252818101929092526040908101600090812033825283528181206001600160a01b038d1682529092528120908883600a8110611fae57611fae6125ce565b6020908102919091015182528101919091526040016000205460ff1615612115576064600960008a84600a8110611fe757611fe76125ce565b602090810291909101518252818101929092526040908101600090812033825283528181206001600160a01b038e1682529092528120908984600a8110612030576120306125ce565b60200201518152602001908152602001600020546001600160801b03166080600960008c86600a8110612065576120656125ce565b602002015181526020019081526020016000206000336001600160a01b03166001600160a01b0316815260200190815260200160002060008d6001600160a01b03166001600160a01b0316815260200190815260200160002060008b86600a81106120d2576120d26125ce565b6020020151815260200190815260200160002054901c60646120f4919061265f565b6120fe91906125fd565b6121089190612632565b612112908361258d565b91505b600860008983600a811061212b5761212b6125ce565b602090810291909101518252818101929092526040908101600090812033825283528181206001600160a01b038d1682529092528120908883600a8110612174576121746125ce565b6020020151815260200190815260200160002060009055600960008983600a81106121a1576121a16125ce565b602090810291909101518252818101929092526040908101600090812033825283528181206001600160a01b038d1682529092528120908883600a81106121ea576121ea6125ce565b6020020151815260200190815260200160002060009055808061220c906125e4565b915050611e3c565b80356001600160a01b038116811461222b57600080fd5b919050565b80356001600160801b038116811461222b57600080fd5b60008060008060008060c0878903121561226057600080fd5b61226987612214565b955061227760208801612214565b9450604087013593506060870135925061229360808801612230565b91506122a160a08801612230565b90509295509295509295565b600080600080608085870312156122c357600080fd5b843593506122d360208601612214565b92506122e160408601612214565b9396929550929360600135925050565b604051610140810167ffffffffffffffff8111828210171561232357634e487b7160e01b600052604160045260246000fd5b60405290565b600082601f83011261233a57600080fd5b6123426122f1565b8061014084018581111561235557600080fd5b845b8181101561236f578035845260209384019301612357565b509095945050505050565b60008060006102a0848603121561239057600080fd5b61239984612214565b92506123a88560208601612329565b91506123b8856101608601612329565b90509250925092565b6000806000806103e085870312156123d857600080fd5b6123e185612214565b9350602086603f8701126123f457600080fd5b6123fc6122f1565b8061016088018981111561240f57600080fd5b8389015b818110156124315761242481612214565b8452928401928401612413565b5081965061243f8a82612329565b955050505050612453866102a08701612329565b905092959194509250565b6000806040838503121561247157600080fd5b61247a83612214565b915061248860208401612214565b90509250929050565b600080600080608085870312156124a757600080fd5b6124b085612214565b966020860135965060408601359560600135945092505050565b6000806000606084860312156124df57600080fd5b833592506124ef60208501612214565b9150604084013590509250925092565b600080600080600080600060e0888a03121561251a57600080fd5b61252388612214565b965061253160208901612214565b955061253f60408901612214565b9450606088013593506080880135925061255b60a08901612230565b915061256960c08901612230565b905092959891949750929550565b634e487b7160e01b600052601160045260246000fd5b600082198211156125a0576125a0612577565b500190565b6000602082840312156125b757600080fd5b815180151581146125c757600080fd5b9392505050565b634e487b7160e01b600052603260045260246000fd5b6000600182016125f6576125f6612577565b5060010190565b600081600019048311821515161561261757612617612577565b500290565b634e487b7160e01b600052601260045260246000fd5b6000826126415761264161261c565b500490565b60006020828403121561265857600080fd5b5051919050565b60008282101561267157612671612577565b500390565b60006001600160801b038083168185168183048111821515161561269c5761269c612577565b02949350505050565b60006001600160801b03808416806126bf576126bf61261c565b9216919091049291505056fea264697066735822122039c5af5fb9fa1362b5c6bd80ec50b609bd935747241424f5059371c0cc6644af64736f6c634300080e0033a264697066735822122031534bea55d5f9640bbf386f69728503bc2d9101737bbb2bfef209473c4adc9864736f6c634300080e0033",
    "linkReferences": {}
  },
  "methodIdentifiers": {
    "accreditedAddresses(address)": "d8e39787",
    "adjustBase()": "39766adb",
    "approveExecutionFee()": "d8be06d4",
    "approveInteractionFee()": "80907b88",
    "approvePaymentCurrency()": "15e771c2",
    "approveTreasury()": "24d7105f",
    "approveTreasuryCut()": "7af3b2e5",
    "base()": "5001f3b5",
    "baseAdjusted(uint256)": "81a86248",
    "baseExecutorCost()": "7597bc01",
    "baseInteractionCost()": "ba57c906",
    "claimReward(uint256,address)": "e70eb392",
    "claimWhitelist(address)": "287001d2",
    "contractWl(address)": "fbcd5ae9",
    "createSwap(address,address)": "479b5f01",
    "epochLength()": "57d775f8",
    "executionPurchased(address,uint256)": "8dae19ee",
    "executionVolume(address,uint256)": "b6f17d8b",
    "executorCost()": "12f753f7",
    "fundsForTreasury()": "4c4a3fb3",
    "getCurrenEpoch()": "250ea3a5",
    "interactionCost()": "b6a47386",
    "interactionPurchased(address,uint256)": "06243ca4",
    "lockCredit(address,uint256)": "5d7c3f38",
    "paymentCurrency()": "3d15cc6d",
    "paymentsMade(uint256)": "ad62a8e8",
    "pendingExecutorCost()": "4981e2c4",
    "pendingInteractionCost()": "fa1846b4",
    "pendingPaymentCurrency()": "cc04a529",
    "pendingTreasury()": "2ed6b75d",
    "pendingTreasuryCut()": "640c9a6d",
    "purchaseExecutorPermission()": "64b6272d",
    "purchaseInteractionPermission()": "b3f3cf00",
    "rejectExecutionFee()": "b0e266fd",
    "rejectInteractionFee()": "c01d2222",
    "rejectPaymentCurrency()": "976d8605",
    "rejectTreasury()": "c3aa34cf",
    "rejectTreasuryCut()": "17ed8c01",
    "setExecutionFee(uint256)": "37a063d2",
    "setInteractionFee(uint256)": "21206804",
    "setPaymentCurrency(address)": "7fe21b69",
    "setTreasury(address)": "f0f44260",
    "setTreasuryCut(uint256)": "87f364df",
    "startTime()": "78e97925",
    "swapAddress(address,address)": "572c82c1",
    "swapExistence(address,address)": "2469eecc",
    "totalExecutionVolume(uint256)": "ac05bb86",
    "totalTokensLocked(address,uint256)": "f11d0d32",
    "treasury()": "61d027b3",
    "treasuryCut()": "746922d6",
    "unlockCredit(address)": "928a55c3",
    "updateVolumeTracker(address)": "818684ef",
    "userTokensLocked(address,address)": "7c04d3dd",
    "userTokensLockedEpoch(address,uint256,address)": "2db8e0bd"
  },
  "id": 8
}