{
  "abi": [
    {
      "inputs": [
        {
          "internalType": "address",
          "name": "token1",
          "type": "address"
        },
        {
          "internalType": "address",
          "name": "token2",
          "type": "address"
        }
      ],
      "stateMutability": "nonpayable",
      "type": "constructor"
    },
    {
      "anonymous": false,
      "inputs": [
        {
          "indexed": false,
          "internalType": "address",
          "name": "_buyer",
          "type": "address"
        },
        {
          "indexed": false,
          "internalType": "uint256",
          "name": "_block",
          "type": "uint256"
        },
        {
          "indexed": false,
          "internalType": "uint256",
          "name": "_price",
          "type": "uint256"
        },
        {
          "indexed": false,
          "internalType": "uint256",
          "name": "_executorReward",
          "type": "uint256"
        },
        {
          "indexed": false,
          "internalType": "uint256",
          "name": "_amount",
          "type": "uint256"
        }
      ],
      "name": "BlockBroadcasted",
      "type": "event"
    },
    {
      "anonymous": false,
      "inputs": [
        {
          "indexed": false,
          "internalType": "address",
          "name": "_buyer",
          "type": "address"
        },
        {
          "indexed": false,
          "internalType": "uint256",
          "name": "_block",
          "type": "uint256"
        },
        {
          "indexed": false,
          "internalType": "uint256",
          "name": "_price",
          "type": "uint256"
        },
        {
          "indexed": false,
          "internalType": "uint256",
          "name": "_executorReward",
          "type": "uint256"
        },
        {
          "indexed": false,
          "internalType": "uint256",
          "name": "_amount",
          "type": "uint256"
        }
      ],
      "name": "IndivBroadcasted",
      "type": "event"
    },
    {
      "inputs": [
        {
          "internalType": "address",
          "name": "_token",
          "type": "address"
        },
        {
          "internalType": "address",
          "name": "_swapToken",
          "type": "address"
        },
        {
          "internalType": "uint256",
          "name": "_block",
          "type": "uint256"
        },
        {
          "internalType": "uint256",
          "name": "_price",
          "type": "uint256"
        },
        {
          "internalType": "uint128",
          "name": "_amount",
          "type": "uint128"
        },
        {
          "internalType": "uint128",
          "name": "_bid",
          "type": "uint128"
        }
      ],
      "name": "bidForBlock",
      "outputs": [],
      "stateMutability": "nonpayable",
      "type": "function"
    },
    {
      "inputs": [
        {
          "internalType": "address",
          "name": "_holder",
          "type": "address"
        },
        {
          "internalType": "address",
          "name": "_token",
          "type": "address"
        },
        {
          "internalType": "address",
          "name": "_swapToken",
          "type": "address"
        },
        {
          "internalType": "uint256",
          "name": "_block",
          "type": "uint256"
        },
        {
          "internalType": "uint256",
          "name": "_price",
          "type": "uint256"
        },
        {
          "internalType": "uint128",
          "name": "_amount",
          "type": "uint128"
        },
        {
          "internalType": "uint128",
          "name": "_bid",
          "type": "uint128"
        }
      ],
      "name": "bidForIndiv",
      "outputs": [],
      "stateMutability": "nonpayable",
      "type": "function"
    },
    {
      "inputs": [
        {
          "internalType": "address",
          "name": "_token",
          "type": "address"
        },
        {
          "internalType": "uint256",
          "name": "_amount",
          "type": "uint256"
        },
        {
          "internalType": "uint256",
          "name": "_price",
          "type": "uint256"
        },
        {
          "internalType": "uint256",
          "name": "_executionOffering",
          "type": "uint256"
        }
      ],
      "name": "broadcastBlockBid",
      "outputs": [],
      "stateMutability": "nonpayable",
      "type": "function"
    },
    {
      "inputs": [
        {
          "internalType": "address",
          "name": "_token",
          "type": "address"
        },
        {
          "internalType": "uint256",
          "name": "_amount",
          "type": "uint256"
        },
        {
          "internalType": "uint256",
          "name": "_price",
          "type": "uint256"
        },
        {
          "internalType": "uint256",
          "name": "_executionOffering",
          "type": "uint256"
        }
      ],
      "name": "broadcastIndiv",
      "outputs": [],
      "stateMutability": "nonpayable",
      "type": "function"
    },
    {
      "inputs": [
        {
          "internalType": "address",
          "name": "_token",
          "type": "address"
        },
        {
          "internalType": "uint256[10]",
          "name": "_block",
          "type": "uint256[10]"
        },
        {
          "internalType": "uint256[10]",
          "name": "_price",
          "type": "uint256[10]"
        }
      ],
      "name": "claimBlockReward",
      "outputs": [
        {
          "internalType": "uint256",
          "name": "",
          "type": "uint256"
        }
      ],
      "stateMutability": "nonpayable",
      "type": "function"
    },
    {
      "inputs": [
        {
          "internalType": "address",
          "name": "_token",
          "type": "address"
        },
        {
          "internalType": "address[10]",
          "name": "_users",
          "type": "address[10]"
        },
        {
          "internalType": "uint256[10]",
          "name": "_block",
          "type": "uint256[10]"
        },
        {
          "internalType": "uint256[10]",
          "name": "_price",
          "type": "uint256[10]"
        }
      ],
      "name": "claimIndivReward",
      "outputs": [
        {
          "internalType": "uint256",
          "name": "",
          "type": "uint256"
        }
      ],
      "stateMutability": "nonpayable",
      "type": "function"
    },
    {
      "inputs": [
        {
          "internalType": "address",
          "name": "_token",
          "type": "address"
        },
        {
          "internalType": "uint256[10]",
          "name": "blocks",
          "type": "uint256[10]"
        },
        {
          "internalType": "uint256[10]",
          "name": "prices",
          "type": "uint256[10]"
        }
      ],
      "name": "claimProceeds",
      "outputs": [
        {
          "internalType": "uint256",
          "name": "",
          "type": "uint256"
        }
      ],
      "stateMutability": "nonpayable",
      "type": "function"
    },
    {
      "inputs": [],
      "name": "factory",
      "outputs": [
        {
          "internalType": "contract SwapFactory",
          "name": "",
          "type": "address"
        }
      ],
      "stateMutability": "view",
      "type": "function"
    },
    {
      "inputs": [
        {
          "internalType": "uint256",
          "name": "",
          "type": "uint256"
        },
        {
          "internalType": "address",
          "name": "",
          "type": "address"
        },
        {
          "internalType": "uint256",
          "name": "",
          "type": "uint256"
        }
      ],
      "name": "lowestBlockBidInfo",
      "outputs": [
        {
          "internalType": "address",
          "name": "bidder",
          "type": "address"
        },
        {
          "internalType": "uint256",
          "name": "bid",
          "type": "uint256"
        }
      ],
      "stateMutability": "view",
      "type": "function"
    },
    {
      "inputs": [
        {
          "internalType": "uint256",
          "name": "",
          "type": "uint256"
        },
        {
          "internalType": "address",
          "name": "",
          "type": "address"
        },
        {
          "internalType": "address",
          "name": "",
          "type": "address"
        },
        {
          "internalType": "uint256",
          "name": "",
          "type": "uint256"
        }
      ],
      "name": "lowestIndivBidInfo",
      "outputs": [
        {
          "internalType": "address",
          "name": "bidder",
          "type": "address"
        },
        {
          "internalType": "uint256",
          "name": "bid",
          "type": "uint256"
        }
      ],
      "stateMutability": "view",
      "type": "function"
    },
    {
      "inputs": [
        {
          "internalType": "uint256",
          "name": "",
          "type": "uint256"
        },
        {
          "internalType": "address",
          "name": "",
          "type": "address"
        },
        {
          "internalType": "address",
          "name": "",
          "type": "address"
        },
        {
          "internalType": "uint256",
          "name": "",
          "type": "uint256"
        }
      ],
      "name": "openBlockBids",
      "outputs": [
        {
          "internalType": "uint256",
          "name": "",
          "type": "uint256"
        }
      ],
      "stateMutability": "view",
      "type": "function"
    },
    {
      "inputs": [
        {
          "internalType": "uint256",
          "name": "",
          "type": "uint256"
        },
        {
          "internalType": "address",
          "name": "",
          "type": "address"
        },
        {
          "internalType": "uint256",
          "name": "",
          "type": "uint256"
        }
      ],
      "name": "openBlockRewardClaimed",
      "outputs": [
        {
          "internalType": "bool",
          "name": "",
          "type": "bool"
        }
      ],
      "stateMutability": "view",
      "type": "function"
    },
    {
      "inputs": [
        {
          "internalType": "uint256",
          "name": "",
          "type": "uint256"
        },
        {
          "internalType": "address",
          "name": "",
          "type": "address"
        },
        {
          "internalType": "uint256",
          "name": "",
          "type": "uint256"
        }
      ],
      "name": "openExecutionRewards",
      "outputs": [
        {
          "internalType": "uint256",
          "name": "",
          "type": "uint256"
        }
      ],
      "stateMutability": "view",
      "type": "function"
    },
    {
      "inputs": [
        {
          "internalType": "uint256",
          "name": "",
          "type": "uint256"
        },
        {
          "internalType": "address",
          "name": "",
          "type": "address"
        },
        {
          "internalType": "address",
          "name": "",
          "type": "address"
        },
        {
          "internalType": "uint256",
          "name": "",
          "type": "uint256"
        }
      ],
      "name": "openIndivBids",
      "outputs": [
        {
          "internalType": "uint256",
          "name": "",
          "type": "uint256"
        }
      ],
      "stateMutability": "view",
      "type": "function"
    },
    {
      "inputs": [
        {
          "internalType": "uint256",
          "name": "",
          "type": "uint256"
        },
        {
          "internalType": "address",
          "name": "",
          "type": "address"
        },
        {
          "internalType": "address",
          "name": "",
          "type": "address"
        },
        {
          "internalType": "uint256",
          "name": "",
          "type": "uint256"
        }
      ],
      "name": "openIndivExecuted",
      "outputs": [
        {
          "internalType": "bool",
          "name": "",
          "type": "bool"
        }
      ],
      "stateMutability": "view",
      "type": "function"
    },
    {
      "inputs": [
        {
          "internalType": "uint256",
          "name": "",
          "type": "uint256"
        },
        {
          "internalType": "address",
          "name": "",
          "type": "address"
        },
        {
          "internalType": "address",
          "name": "",
          "type": "address"
        },
        {
          "internalType": "uint256",
          "name": "",
          "type": "uint256"
        }
      ],
      "name": "openIndivRewardClaimed",
      "outputs": [
        {
          "internalType": "bool",
          "name": "",
          "type": "bool"
        }
      ],
      "stateMutability": "view",
      "type": "function"
    },
    {
      "inputs": [
        {
          "internalType": "uint256",
          "name": "",
          "type": "uint256"
        },
        {
          "internalType": "address",
          "name": "",
          "type": "address"
        },
        {
          "internalType": "uint256",
          "name": "",
          "type": "uint256"
        }
      ],
      "name": "openSwaps",
      "outputs": [
        {
          "internalType": "uint256",
          "name": "",
          "type": "uint256"
        }
      ],
      "stateMutability": "view",
      "type": "function"
    },
    {
      "inputs": [
        {
          "internalType": "uint256",
          "name": "",
          "type": "uint256"
        },
        {
          "internalType": "address",
          "name": "",
          "type": "address"
        },
        {
          "internalType": "uint256",
          "name": "",
          "type": "uint256"
        }
      ],
      "name": "openSwapsExecuted",
      "outputs": [
        {
          "internalType": "bool",
          "name": "",
          "type": "bool"
        }
      ],
      "stateMutability": "view",
      "type": "function"
    },
    {
      "inputs": [
        {
          "internalType": "address",
          "name": "",
          "type": "address"
        },
        {
          "internalType": "address",
          "name": "",
          "type": "address"
        }
      ],
      "name": "pendingReturns",
      "outputs": [
        {
          "internalType": "uint256",
          "name": "",
          "type": "uint256"
        }
      ],
      "stateMutability": "view",
      "type": "function"
    },
    {
      "inputs": [],
      "name": "swapToken1",
      "outputs": [
        {
          "internalType": "address",
          "name": "",
          "type": "address"
        }
      ],
      "stateMutability": "view",
      "type": "function"
    },
    {
      "inputs": [],
      "name": "swapToken2",
      "outputs": [
        {
          "internalType": "address",
          "name": "",
          "type": "address"
        }
      ],
      "stateMutability": "view",
      "type": "function"
    }
  ],
  "bytecode": {
    "object": "0x60e060405260016000553480156200001657600080fd5b506040516200285938038062002859833981016040819052620000399162000072565b336080526001600160a01b0391821660a0521660c052620000aa565b80516001600160a01b03811681146200006d57600080fd5b919050565b600080604083850312156200008657600080fd5b620000918362000055565b9150620000a16020840162000055565b90509250929050565b60805160a05160c05161270162000158600039600081816104e4015281816105590152818161091001528181610ccc0152818161122601528181611686015281816119a00152611df901526000818161026101528181610523015281816108da01528181610c96015281816111f0015281816116500152818161196a0152611dc30152600081816103be01528181611297015281816112c7015281816116f7015261172701526127016000f3fe608060405234801561001057600080fd5b50600436106101375760003560e01c80638e8b7381116100b8578063c6316d111161007c578063c6316d11146103e0578063c7481ead1461041d578063dd37caea14610457578063e4848c7914610488578063e833365a146104cc578063eb2c56dd146104df57600080fd5b80638e8b7381146102cc5780639909ad4914610306578063a6d50cb914610372578063be1d5671146103a6578063c45a0155146103b957600080fd5b80636c6473b8116100ff5780636c6473b81461020257806378d3436e146102155780637a3120b5146102495780638230e6021461025c5780638734e99e1461029b57600080fd5b80631d4205d21461013c57806320515630146101515780633f6ff9f4146101a357806358aff407146101c4578063643745fb146101d7575b600080fd5b61014f61014a366004612247565b610506565b005b61018e61015f3660046122ad565b600b60209081526000948552604080862082529385528385208152918452828420909152825290205460ff1681565b60405190151581526020015b60405180910390f35b6101b66101b136600461237a565b6108bb565b60405190815260200161019a565b6101b66101d23660046123c1565b610c77565b6101b66101e536600461245e565b600160209081526000928352604080842090915290825290205481565b61014f610210366004612491565b6111d3565b61018e6102233660046124ca565b600560209081526000938452604080852082529284528284209052825290205460ff1681565b61014f610257366004612491565b611633565b6102837f000000000000000000000000000000000000000000000000000000000000000081565b6040516001600160a01b03909116815260200161019a565b6101b66102a93660046124ca565b600460209081526000938452604080852082529284528284209052825290205481565b6101b66102da3660046122ad565b600860209081526000948552604080862082529385528385208152918452828420909152825290205481565b6103536103143660046122ad565b6003602090815260009485526040808620825293855283852081529184528284209091528252902080546001909101546001600160a01b039091169082565b604080516001600160a01b03909316835260208301919091520161019a565b61018e6103803660046124ca565b600660209081526000938452604080852082529284528284209052825290205460ff1681565b61014f6103b43660046124ff565b61194d565b6102837f000000000000000000000000000000000000000000000000000000000000000081565b61018e6103ee3660046122ad565b600a60209081526000948552604080862082529385528385208152918452828420909152825290205460ff1681565b6101b661042b3660046122ad565b600960209081526000948552604080862082529385528385208152918452828420909152825290205481565b6101b66104653660046124ca565b600760209081526000938452604080852082529284528284209052825290205481565b6103536104963660046124ca565b6002602090815260009384526040808520825292845282842090528252902080546001909101546001600160a01b039091169082565b6101b66104da36600461237a565b611da4565b6102837f000000000000000000000000000000000000000000000000000000000000000081565b6001600080828254610518919061258d565b9091555050600054867f00000000000000000000000000000000000000000000000000000000000000006001600160a01b03908116908216148061058d57507f00000000000000000000000000000000000000000000000000000000000000006001600160a01b0316816001600160a01b0316145b61059657600080fd5b8543106105d25760405162461bcd60e51b8152602060048201526005602482015264494245203160d81b60448201526064015b60405180910390fd5b856105de43600361258d565b10156106145760405162461bcd60e51b815260206004820152600560248201526424a122901960d91b60448201526064016105c9565b60008681526004602090815260408083206001600160a01b038c16845282528083208884529091529020546001600160801b038516146106885760405162461bcd60e51b815260206004820152600f60248201526e125b5c1c9bdc195c88185b5bdd5b9d608a1b60448201526064016105c9565b84836001600160801b031611156106d05760405162461bcd60e51b815260206004820152600c60248201526b125b5c1c9bdc195c88189a5960a21b60448201526064016105c9565b60008681526002602090815260408083206001600160a01b038c1680855290835281842089855283528184208a8552600584528285209185529083528184208985529092529091205460ff161561076b57836001600160801b031681600101541161076b5760405162461bcd60e51b815260206004820152600b60248201526a135d5cdd081bdd5d189a5960aa1b60448201526064016105c9565b80546001600160a01b039081166000908152600160209081526040808320938c16835292905290812080546001600160801b03881692906107ad90849061258d565b90915550506001600160801b03841660018083019190915581546001600160a01b03191633908117835560008981526005602090815260408083206001600160a01b038f811685529083528184208c855290925291829020805460ff1916909417909355516323b872dd60e01b8152918a16916323b872dd9161085e9130908a906004016001600160a01b0393841681529190921660208201526001600160801b0391909116604082015260600190565b6020604051808303816000875af115801561087d573d6000803e3d6000fd5b505050506040513d601f19601f820116820180604052508101906108a191906125a5565b50505060005481146108b257600080fd5b50505050505050565b600060016000808282546108cf919061258d565b9091555050600054847f00000000000000000000000000000000000000000000000000000000000000006001600160a01b03908116908216148061094457507f00000000000000000000000000000000000000000000000000000000000000006001600160a01b0316816001600160a01b0316145b61094d57600080fd5b600a6000805b82811015610bea578781600a811061096d5761096d6125ce565b6020020151158061099257508681600a811061098b5761098b6125ce565b6020020151155b610bea57600660008983600a81106109ac576109ac6125ce565b6020020151815260200190815260200160002060008a6001600160a01b03166001600160a01b0316815260200190815260200160002060008883600a81106109f6576109f66125ce565b6020908102919091015182528101919091526040016000205460ff1615610a1c57600080fd5b6000600260008a84600a8110610a3457610a346125ce565b6020020151815260200190815260200160002060008b6001600160a01b03166001600160a01b0316815260200190815260200160002060008984600a8110610a7e57610a7e6125ce565b602090810291909101518252818101929092526040908101600020815180830190925280546001600160a01b03168083526001909101549282019290925291503314610ac957600080fd5b600760008a84600a8110610adf57610adf6125ce565b6020020151815260200190815260200160002060008b6001600160a01b03166001600160a01b0316815260200190815260200160002060008984600a8110610b2957610b296125ce565b602002015181526020019081526020016000205483610b48919061258d565b92506001600660008b85600a8110610b6257610b626125ce565b6020020151815260200190815260200160002060008c6001600160a01b03166001600160a01b0316815260200190815260200160002060008a85600a8110610bac57610bac6125ce565b6020020151815260200190815260200160002060006101000a81548160ff021916908315150217905550508080610be2906125e4565b915050610953565b5060405163a9059cbb60e01b8152336004820152602481018290526001600160a01b0389169063a9059cbb906044016020604051808303816000875af1158015610c38573d6000803e3d6000fd5b505050506040513d601f19601f82011682018060405250810190610c5c91906125a5565b50935050506000548114610c6f57600080fd5b509392505050565b60006001600080828254610c8b919061258d565b9091555050600054857f00000000000000000000000000000000000000000000000000000000000000006001600160a01b039081169082161480610d0057507f00000000000000000000000000000000000000000000000000000000000000006001600160a01b0316816001600160a01b0316145b610d0957600080fd5b600a6000805b828110156111455760008982600a8110610d2b57610d2b6125ce565b60200201516001600160a01b03161461114557600b60008983600a8110610d5457610d546125ce565b6020020151815260200190815260200160002060008a83600a8110610d7b57610d7b6125ce565b60200201516001600160a01b03166001600160a01b0316815260200190815260200160002060008b6001600160a01b03166001600160a01b0316815260200190815260200160002060008883600a8110610dd757610dd76125ce565b6020908102919091015182528101919091526040016000205460ff1615610dfd57600080fd5b6000600360008a84600a8110610e1557610e156125ce565b6020020151815260200190815260200160002060008b84600a8110610e3c57610e3c6125ce565b60200201516001600160a01b03166001600160a01b0316815260200190815260200160002060008c6001600160a01b03166001600160a01b0316815260200190815260200160002060008984600a8110610e9857610e986125ce565b602090810291909101518252818101929092526040908101600020815180830190925280546001600160a01b03168083526001909101549282019290925291503314610ee357600080fd5b6064600960008b85600a8110610efb57610efb6125ce565b6020020151815260200190815260200160002060008c85600a8110610f2257610f226125ce565b60200201516001600160a01b03166001600160a01b0316815260200190815260200160002060008d6001600160a01b03166001600160a01b0316815260200190815260200160002060008a85600a8110610f7e57610f7e6125ce565b60200201518152602001908152602001600020546001600160801b03166080600960008d87600a8110610fb357610fb36125ce565b6020020151815260200190815260200160002060008e87600a8110610fda57610fda6125ce565b60200201516001600160a01b03166001600160a01b0316815260200190815260200160002060008f6001600160a01b03166001600160a01b0316815260200190815260200160002060008c87600a8110611036576110366125ce565b6020020151815260200190815260200160002054901c61105691906125fd565b6110609190612632565b61106a908461258d565b92506001600b60008b85600a8110611084576110846125ce565b6020020151815260200190815260200160002060008c85600a81106110ab576110ab6125ce565b60200201516001600160a01b03166001600160a01b0316815260200190815260200160002060008d6001600160a01b03166001600160a01b0316815260200190815260200160002060008a85600a8110611107576111076125ce565b6020020151815260200190815260200160002060006101000a81548160ff02191690831515021790555050808061113d906125e4565b915050610d0f565b5060405163a9059cbb60e01b8152336004820152602481018290526001600160a01b038a169063a9059cbb906044016020604051808303816000875af1158015611193573d6000803e3d6000fd5b505050506040513d601f19601f820116820180604052508101906111b791906125a5565b509350505060005481146111ca57600080fd5b50949350505050565b60016000808282546111e5919061258d565b9091555050600054847f00000000000000000000000000000000000000000000000000000000000000006001600160a01b03908116908216148061125a57507f00000000000000000000000000000000000000000000000000000000000000006001600160a01b0316816001600160a01b0316145b61126357600080fd5b6001607f1b841061127357600080fd5b6001607f1b851061128357600080fd5b33803b9063ffffffff821615806113b457507f00000000000000000000000000000000000000000000000000000000000000006001600160a01b03166306243ca4337f00000000000000000000000000000000000000000000000000000000000000006001600160a01b031663250ea3a56040518163ffffffff1660e01b8152600401602060405180830381865afa158015611323573d6000803e3d6000fd5b505050506040513d601f19601f820116820180604052508101906113479190612646565b6040516001600160e01b031960e085901b1681526001600160a01b0390921660048301526024820152604401602060405180830381865afa158015611390573d6000803e3d6000fd5b505050506040513d601f19601f820116820180604052508101906113b491906125a5565b6113bd57600080fd5b608085901b6064886113cf888361265f565b6113d991906125fd565b6113e39190612632565b1780600860006113f443600361258d565b81526020808201929092526040908101600090812033825283528181206001600160a01b038e16825283528181208b8252909252902055606488611438888361265f565b61144291906125fd565b61144c9190612632565b6004600061145b43600361258d565b8152602080820192909252604090810160009081206001600160a01b038e16825283528181208b82529092528120805490919061149990849061258d565b90915550606490506114ab89886125fd565b6114b59190612632565b600760006114c443600361258d565b8152602080820192909252604090810160009081206001600160a01b038e16825283528181208b82529092528120805490919061150290849061258d565b90915550506040516323b872dd60e01b8152336004820152306024820152604481018990526001600160a01b038a16906323b872dd906064016020604051808303816000875af115801561155a573d6000803e3d6000fd5b505050506040513d601f19601f8201168201806040525081019061157e91906125a5565b507f9942c457cf20f7b4f377c6d4dfc062c302a23e9e5e47211324338dcc21c2929a336115ac43600361258d565b8960646115b98d8c6125fd565b6115c39190612632565b60648d6115d08d8361265f565b6115da91906125fd565b6115e49190612632565b604080516001600160a01b0390961686526020860194909452928401919091526060830152608082015260a0015b60405180910390a150505050600054811461162c57600080fd5b5050505050565b6001600080828254611645919061258d565b9091555050600054847f00000000000000000000000000000000000000000000000000000000000000006001600160a01b0390811690821614806116ba57507f00000000000000000000000000000000000000000000000000000000000000006001600160a01b0316816001600160a01b0316145b6116c357600080fd5b6001607f1b84106116d357600080fd5b6001607f1b85106116e357600080fd5b33803b9063ffffffff8216158061181457507f00000000000000000000000000000000000000000000000000000000000000006001600160a01b03166306243ca4337f00000000000000000000000000000000000000000000000000000000000000006001600160a01b031663250ea3a56040518163ffffffff1660e01b8152600401602060405180830381865afa158015611783573d6000803e3d6000fd5b505050506040513d601f19601f820116820180604052508101906117a79190612646565b6040516001600160e01b031960e085901b1681526001600160a01b0390921660048301526024820152604401602060405180830381865afa1580156117f0573d6000803e3d6000fd5b505050506040513d601f19601f8201168201806040525081019061181491906125a5565b61181d57600080fd5b608085901b8717806009600061183443600361258d565b815260208082019290925260409081016000908120338083529084528282206001600160a01b038f168084529085528383208d84529094529082902093909355516323b872dd60e01b81526004810192909252306024830152604482018a9052906323b872dd906064016020604051808303816000875af11580156118bd573d6000803e3d6000fd5b505050506040513d601f19601f820116820180604052508101906118e191906125a5565b507f5e84db0457363f9e88be91c7fa55664e1be42c4625ad80334d3b56858cf092203361190f43600361258d565b604080516001600160a01b03909316835260208301919091528101899052608083811c60608301526001600160801b0384169082015260a001611612565b600160008082825461195f919061258d565b9091555050600054867f00000000000000000000000000000000000000000000000000000000000000006001600160a01b0390811690821614806119d457507f00000000000000000000000000000000000000000000000000000000000000006001600160a01b0316816001600160a01b0316145b6119dd57600080fd5b854310611a145760405162461bcd60e51b8152602060048201526005602482015264494245203160d81b60448201526064016105c9565b85611a2043600361258d565b1015611a565760405162461bcd60e51b815260206004820152600560248201526424a122901960d91b60448201526064016105c9565b60008681526009602090815260408083206001600160a01b03808e168552908352818420908c16845282528083208884529091529020546001600160801b03858116911614611ad95760405162461bcd60e51b815260206004820152600f60248201526e125b5c1c9bdc195c88185b5bdd5b9d608a1b60448201526064016105c9565b84836001600160801b03161115611b215760405162461bcd60e51b815260206004820152600c60248201526b125b5c1c9bdc195c88189a5960a21b60448201526064016105c9565b60008681526003602090815260408083206001600160a01b03808e16808652918452828520908d168086529084528285208a865284528285208b8652600a855283862092865291845282852090855283528184208985529092529091205460ff1615611bd157836001600160801b0316816001015411611bd15760405162461bcd60e51b815260206004820152600b60248201526a135d5cdd081bdd5d189a5960aa1b60448201526064016105c9565b80546001600160a01b039081166000908152600160209081526040808320938c16835292905290812080546001600160801b0388169290611c1390849061258d565b92505081905550836001600160801b03168160010181905550338160000160006101000a8154816001600160a01b0302191690836001600160a01b031602179055506001600a600089815260200190815260200160002060008c6001600160a01b03166001600160a01b0316815260200190815260200160002060008b6001600160a01b03166001600160a01b03168152602001908152602001600020600088815260200190815260200160002060006101000a81548160ff021916908315150217905550876001600160a01b03166323b872dd3330670de0b6b3a7640000888a611cfe9190612676565b611d0891906126a5565b6040516001600160e01b031960e086901b1681526001600160a01b0393841660048201529290911660248301526001600160801b031660448201526064016020604051808303816000875af1158015611d65573d6000803e3d6000fd5b505050506040513d601f19601f82011682018060405250810190611d8991906125a5565b5050506000548114611d9a57600080fd5b5050505050505050565b60006001600080828254611db8919061258d565b9091555050600054847f00000000000000000000000000000000000000000000000000000000000000006001600160a01b039081169082161480611e2d57507f00000000000000000000000000000000000000000000000000000000000000006001600160a01b0316816001600160a01b0316145b611e3657600080fd5b600a6000805b82811015610bea57600560008983600a8110611e5a57611e5a6125ce565b6020020151815260200190815260200160002060008a6001600160a01b03166001600160a01b0316815260200190815260200160002060008883600a8110611ea457611ea46125ce565b6020908102919091015182528101919091526040016000205460ff1615611f4f57600860008983600a8110611edb57611edb6125ce565b602090810291909101518252818101929092526040908101600090812033825283528181206001600160a01b038d1682529092528120908883600a8110611f2457611f246125ce565b60200201518152602001908152602001600020546001600160801b031682611f4c919061258d565b91505b600a60008983600a8110611f6557611f656125ce565b602090810291909101518252818101929092526040908101600090812033825283528181206001600160a01b038d1682529092528120908883600a8110611fae57611fae6125ce565b6020908102919091015182528101919091526040016000205460ff1615612115576064600960008a84600a8110611fe757611fe76125ce565b602090810291909101518252818101929092526040908101600090812033825283528181206001600160a01b038e1682529092528120908984600a8110612030576120306125ce565b60200201518152602001908152602001600020546001600160801b03166080600960008c86600a8110612065576120656125ce565b602002015181526020019081526020016000206000336001600160a01b03166001600160a01b0316815260200190815260200160002060008d6001600160a01b03166001600160a01b0316815260200190815260200160002060008b86600a81106120d2576120d26125ce565b6020020151815260200190815260200160002054901c60646120f4919061265f565b6120fe91906125fd565b6121089190612632565b612112908361258d565b91505b600860008983600a811061212b5761212b6125ce565b602090810291909101518252818101929092526040908101600090812033825283528181206001600160a01b038d1682529092528120908883600a8110612174576121746125ce565b6020020151815260200190815260200160002060009055600960008983600a81106121a1576121a16125ce565b602090810291909101518252818101929092526040908101600090812033825283528181206001600160a01b038d1682529092528120908883600a81106121ea576121ea6125ce565b6020020151815260200190815260200160002060009055808061220c906125e4565b915050611e3c565b80356001600160a01b038116811461222b57600080fd5b919050565b80356001600160801b038116811461222b57600080fd5b60008060008060008060c0878903121561226057600080fd5b61226987612214565b955061227760208801612214565b9450604087013593506060870135925061229360808801612230565b91506122a160a08801612230565b90509295509295509295565b600080600080608085870312156122c357600080fd5b843593506122d360208601612214565b92506122e160408601612214565b9396929550929360600135925050565b604051610140810167ffffffffffffffff8111828210171561232357634e487b7160e01b600052604160045260246000fd5b60405290565b600082601f83011261233a57600080fd5b6123426122f1565b8061014084018581111561235557600080fd5b845b8181101561236f578035845260209384019301612357565b509095945050505050565b60008060006102a0848603121561239057600080fd5b61239984612214565b92506123a88560208601612329565b91506123b8856101608601612329565b90509250925092565b6000806000806103e085870312156123d857600080fd5b6123e185612214565b9350602086603f8701126123f457600080fd5b6123fc6122f1565b8061016088018981111561240f57600080fd5b8389015b818110156124315761242481612214565b8452928401928401612413565b5081965061243f8a82612329565b955050505050612453866102a08701612329565b905092959194509250565b6000806040838503121561247157600080fd5b61247a83612214565b915061248860208401612214565b90509250929050565b600080600080608085870312156124a757600080fd5b6124b085612214565b966020860135965060408601359560600135945092505050565b6000806000606084860312156124df57600080fd5b833592506124ef60208501612214565b9150604084013590509250925092565b600080600080600080600060e0888a03121561251a57600080fd5b61252388612214565b965061253160208901612214565b955061253f60408901612214565b9450606088013593506080880135925061255b60a08901612230565b915061256960c08901612230565b905092959891949750929550565b634e487b7160e01b600052601160045260246000fd5b600082198211156125a0576125a0612577565b500190565b6000602082840312156125b757600080fd5b815180151581146125c757600080fd5b9392505050565b634e487b7160e01b600052603260045260246000fd5b6000600182016125f6576125f6612577565b5060010190565b600081600019048311821515161561261757612617612577565b500290565b634e487b7160e01b600052601260045260246000fd5b6000826126415761264161261c565b500490565b60006020828403121561265857600080fd5b5051919050565b60008282101561267157612671612577565b500390565b60006001600160801b038083168185168183048111821515161561269c5761269c612577565b02949350505050565b60006001600160801b03808416806126bf576126bf61261c565b9216919091049291505056fea264697066735822122039c5af5fb9fa1362b5c6bd80ec50b609bd935747241424f5059371c0cc6644af64736f6c634300080e0033",
    "linkReferences": {}
  },
  "methodIdentifiers": {
    "bidForBlock(address,address,uint256,uint256,uint128,uint128)": "1d4205d2",
    "bidForIndiv(address,address,address,uint256,uint256,uint128,uint128)": "be1d5671",
    "broadcastBlockBid(address,uint256,uint256,uint256)": "6c6473b8",
    "broadcastIndiv(address,uint256,uint256,uint256)": "7a3120b5",
    "claimBlockReward(address,uint256[10],uint256[10])": "3f6ff9f4",
    "claimIndivReward(address,address[10],uint256[10],uint256[10])": "58aff407",
    "claimProceeds(address,uint256[10],uint256[10])": "e833365a",
    "factory()": "c45a0155",
    "lowestBlockBidInfo(uint256,address,uint256)": "e4848c79",
    "lowestIndivBidInfo(uint256,address,address,uint256)": "9909ad49",
    "openBlockBids(uint256,address,address,uint256)": "8e8b7381",
    "openBlockRewardClaimed(uint256,address,uint256)": "a6d50cb9",
    "openExecutionRewards(uint256,address,uint256)": "dd37caea",
    "openIndivBids(uint256,address,address,uint256)": "c7481ead",
    "openIndivExecuted(uint256,address,address,uint256)": "c6316d11",
    "openIndivRewardClaimed(uint256,address,address,uint256)": "20515630",
    "openSwaps(uint256,address,uint256)": "8734e99e",
    "openSwapsExecuted(uint256,address,uint256)": "78d3436e",
    "pendingReturns(address,address)": "643745fb",
    "swapToken1()": "8230e602",
    "swapToken2()": "eb2c56dd"
  },
  "id": 7
}