{
  "abi": [
    {
      "inputs": [],
      "stateMutability": "nonpayable",
      "type": "constructor"
    },
    {
      "inputs": [
        {
          "internalType": "uint256",
          "name": "amount",
          "type": "uint256"
        }
      ],
      "name": "addOne",
      "outputs": [],
      "stateMutability": "nonpayable",
      "type": "function"
    },
    {
      "inputs": [],
      "name": "owner",
      "outputs": [
        {
          "internalType": "address",
          "name": "",
          "type": "address"
        }
      ],
      "stateMutability": "view",
      "type": "function"
    },
    {
      "inputs": [],
      "name": "product",
      "outputs": [
        {
          "internalType": "uint256",
          "name": "",
          "type": "uint256"
        }
      ],
      "stateMutability": "view",
      "type": "function"
    },
    {
      "inputs": [],
      "name": "quotient",
      "outputs": [
        {
          "internalType": "uint256",
          "name": "",
          "type": "uint256"
        }
      ],
      "stateMutability": "view",
      "type": "function"
    },
    {
      "inputs": [],
      "name": "val",
      "outputs": [
        {
          "internalType": "uint256",
          "name": "",
          "type": "uint256"
        }
      ],
      "stateMutability": "view",
      "type": "function"
    }
  ],
  "bytecode": {
    "object": "0x608060405234801561001057600080fd5b50600080546001600160a01b03191633179055610168806100326000396000f3fe608060405234801561001057600080fd5b50600436106100575760003560e01c80633c6bb4361461005c5780638da5cb5b14610078578063bf9ce952146100a3578063c744c486146100ac578063f360110b146100c1575b600080fd5b61006560015481565b6040519081526020015b60405180910390f35b60005461008b906001600160a01b031681565b6040516001600160a01b03909116815260200161006f565b61006560025481565b6100bf6100ba3660046100f2565b6100ca565b005b61006560035481565b6000546001600160a01b031633146100e157600080fd5b806100eb8161010b565b6001555050565b60006020828403121561010457600080fd5b5035919050565b60006001820161012b57634e487b7160e01b600052601160045260246000fd5b506001019056fea264697066735822122070ff77d3eb776520dcc6ea0384257ab1b768fdbf68b8c263646c8cb270e7721f64736f6c634300080e0033",
    "linkReferences": {}
  },
  "methodIdentifiers": {
    "addOne(uint256)": "c744c486",
    "owner()": "8da5cb5b",
    "product()": "bf9ce952",
    "quotient()": "f360110b",
    "val()": "3c6bb436"
  },
  "id": 5
}