{
  "abi": [
    {
      "inputs": [
        {
          "internalType": "address",
          "name": "token",
          "type": "address"
        },
        {
          "internalType": "address",
          "name": "receiver",
          "type": "address"
        },
        {
          "internalType": "uint256",
          "name": "amount",
          "type": "uint256"
        }
      ],
      "name": "approveTransfer",
      "outputs": [],
      "stateMutability": "nonpayable",
      "type": "function"
    },
    {
      "inputs": [
        {
          "internalType": "address",
          "name": "swapPool",
          "type": "address"
        },
        {
          "internalType": "address",
          "name": "_token",
          "type": "address"
        },
        {
          "internalType": "address",
          "name": "_swapToken",
          "type": "address"
        },
        {
          "internalType": "uint256",
          "name": "_block",
          "type": "uint256"
        },
        {
          "internalType": "uint256",
          "name": "_price",
          "type": "uint256"
        },
        {
          "internalType": "uint128",
          "name": "_amount",
          "type": "uint128"
        },
        {
          "internalType": "uint128",
          "name": "_bid",
          "type": "uint128"
        }
      ],
      "name": "bidBlock",
      "outputs": [],
      "stateMutability": "nonpayable",
      "type": "function"
    },
    {
      "inputs": [
        {
          "internalType": "address",
          "name": "swapPool",
          "type": "address"
        },
        {
          "internalType": "address",
          "name": "_holder",
          "type": "address"
        },
        {
          "internalType": "address",
          "name": "_token",
          "type": "address"
        },
        {
          "internalType": "address",
          "name": "_swapToken",
          "type": "address"
        },
        {
          "internalType": "uint256",
          "name": "_block",
          "type": "uint256"
        },
        {
          "internalType": "uint256",
          "name": "_price",
          "type": "uint256"
        },
        {
          "internalType": "uint128",
          "name": "_amount",
          "type": "uint128"
        },
        {
          "internalType": "uint128",
          "name": "_bid",
          "type": "uint128"
        }
      ],
      "name": "bidIndiv",
      "outputs": [],
      "stateMutability": "nonpayable",
      "type": "function"
    },
    {
      "inputs": [
        {
          "internalType": "address",
          "name": "swapPool",
          "type": "address"
        },
        {
          "internalType": "address",
          "name": "token",
          "type": "address"
        },
        {
          "internalType": "uint256",
          "name": "amount",
          "type": "uint256"
        },
        {
          "internalType": "uint256",
          "name": "price",
          "type": "uint256"
        },
        {
          "internalType": "uint256",
          "name": "executionOffering",
          "type": "uint256"
        }
      ],
      "name": "broadcastBlock",
      "outputs": [],
      "stateMutability": "nonpayable",
      "type": "function"
    },
    {
      "inputs": [
        {
          "internalType": "address",
          "name": "swapPool",
          "type": "address"
        },
        {
          "internalType": "address",
          "name": "token",
          "type": "address"
        },
        {
          "internalType": "uint256",
          "name": "amount",
          "type": "uint256"
        },
        {
          "internalType": "uint256",
          "name": "price",
          "type": "uint256"
        },
        {
          "internalType": "uint256",
          "name": "executionReward",
          "type": "uint256"
        }
      ],
      "name": "broadcastIndiv",
      "outputs": [],
      "stateMutability": "nonpayable",
      "type": "function"
    },
    {
      "inputs": [
        {
          "internalType": "address",
          "name": "swapPool",
          "type": "address"
        },
        {
          "internalType": "address",
          "name": "_token",
          "type": "address"
        },
        {
          "internalType": "uint256[10]",
          "name": "blocks",
          "type": "uint256[10]"
        },
        {
          "internalType": "uint256[10]",
          "name": "prices",
          "type": "uint256[10]"
        }
      ],
      "name": "claimBlockReward",
      "outputs": [
        {
          "internalType": "uint256",
          "name": "",
          "type": "uint256"
        }
      ],
      "stateMutability": "nonpayable",
      "type": "function"
    },
    {
      "inputs": [
        {
          "internalType": "address",
          "name": "swapPool",
          "type": "address"
        },
        {
          "internalType": "address",
          "name": "_token",
          "type": "address"
        },
        {
          "internalType": "address[10]",
          "name": "_users",
          "type": "address[10]"
        },
        {
          "internalType": "uint256[10]",
          "name": "_blocks",
          "type": "uint256[10]"
        },
        {
          "internalType": "uint256[10]",
          "name": "_prices",
          "type": "uint256[10]"
        }
      ],
      "name": "claimIndivReward",
      "outputs": [
        {
          "internalType": "uint256",
          "name": "",
          "type": "uint256"
        }
      ],
      "stateMutability": "nonpayable",
      "type": "function"
    },
    {
      "inputs": [
        {
          "internalType": "address",
          "name": "swapPool",
          "type": "address"
        },
        {
          "internalType": "address",
          "name": "_token",
          "type": "address"
        },
        {
          "internalType": "uint256[10]",
          "name": "blocks",
          "type": "uint256[10]"
        },
        {
          "internalType": "uint256[10]",
          "name": "prices",
          "type": "uint256[10]"
        }
      ],
      "name": "claimProceeds",
      "outputs": [
        {
          "internalType": "uint256",
          "name": "",
          "type": "uint256"
        }
      ],
      "stateMutability": "nonpayable",
      "type": "function"
    },
    {
      "inputs": [
        {
          "internalType": "address",
          "name": "factory",
          "type": "address"
        }
      ],
      "name": "purchase",
      "outputs": [],
      "stateMutability": "nonpayable",
      "type": "function"
    }
  ],
  "bytecode": {
    "object": "0x608060405234801561001057600080fd5b50610a21806100206000396000f3fe608060405234801561001057600080fd5b50600436106100935760003560e01c80637e3e8f3a116100665780637e3e8f3a146100f8578063825808051461010b5780639fd089511461011e578063abfbd96314610131578063b6619a171461014457600080fd5b806325b31a97146100985780632cb6831b146100ad5780632ccaaa6e146100d257806338d2b22b146100e5575b600080fd5b6100ab6100a63660046105b3565b610157565b005b6100c06100bb36600461065e565b610200565b60405190815260200160405180910390f35b6100ab6100e03660046106cd565b610281565b6100ab6100f3366004610745565b610312565b6100ab610106366004610792565b61038a565b6100ab61011936600461081b565b610424565b6100c061012c36600461065e565b61049d565b6100ab61013f366004610745565b6104d0565b6100c0610152366004610857565b610513565b806001600160a01b03166364b6272d6040518163ffffffff1660e01b8152600401600060405180830381600087803b15801561019257600080fd5b505af11580156101a6573d6000803e3d6000fd5b50505050806001600160a01b031663b3f3cf006040518163ffffffff1660e01b8152600401600060405180830381600087803b1580156101e557600080fd5b505af11580156101f9573d6000803e3d6000fd5b5050505050565b6040516374199b2d60e11b81526000906001600160a01b0386169063e833365a9061023390879087908790600401610928565b6020604051808303816000875af1158015610252573d6000803e3d6000fd5b505050506040513d601f19601f820116820180604052508101906102769190610954565b90505b949350505050565b604051630ea102e960e11b81526001600160a01b038781166004830152868116602483015260448201869052606482018590526001600160801b038085166084840152831660a4830152881690631d4205d29060c401600060405180830381600087803b1580156102f157600080fd5b505af1158015610305573d6000803e3d6000fd5b5050505050505050505050565b604051637a3120b560e01b81526001600160a01b038581166004830152602482018590526044820184905260648201839052861690637a3120b5906084015b600060405180830381600087803b15801561036b57600080fd5b505af115801561037f573d6000803e3d6000fd5b505050505050505050565b60405163be1d567160e01b81526001600160a01b0388811660048301528781166024830152868116604483015260648201869052608482018590526001600160801b0380851660a4840152831660c483015289169063be1d56719060e401600060405180830381600087803b15801561040257600080fd5b505af1158015610416573d6000803e3d6000fd5b505050505050505050505050565b60405163095ea7b360e01b81526001600160a01b0383811660048301526024820183905284169063095ea7b3906044016020604051808303816000875af1158015610473573d6000803e3d6000fd5b505050506040513d601f19601f82011682018060405250810190610497919061096d565b50505050565b604051630fdbfe7d60e21b81526000906001600160a01b03861690633f6ff9f49061023390879087908790600401610928565b604051630d8c8e7760e31b81526001600160a01b038581166004830152602482018590526044820184905260648201839052861690636c6473b890608401610351565b6040516358aff40760e01b81526000906001600160a01b038716906358aff4079061054890889088908890889060040161098f565b6020604051808303816000875af1158015610567573d6000803e3d6000fd5b505050506040513d601f19601f8201168201806040525081019061058b9190610954565b90505b95945050505050565b80356001600160a01b03811681146105ae57600080fd5b919050565b6000602082840312156105c557600080fd5b6105ce82610597565b9392505050565b604051610140810167ffffffffffffffff8111828210171561060757634e487b7160e01b600052604160045260246000fd5b60405290565b600082601f83011261061e57600080fd5b6106266105d5565b8061014084018581111561063957600080fd5b845b8181101561065357803584526020938401930161063b565b509095945050505050565b6000806000806102c0858703121561067557600080fd5b61067e85610597565b935061068c60208601610597565b925061069b866040870161060d565b91506106ab86610180870161060d565b905092959194509250565b80356001600160801b03811681146105ae57600080fd5b600080600080600080600060e0888a0312156106e857600080fd5b6106f188610597565b96506106ff60208901610597565b955061070d60408901610597565b9450606088013593506080880135925061072960a089016106b6565b915061073760c089016106b6565b905092959891949750929550565b600080600080600060a0868803121561075d57600080fd5b61076686610597565b945061077460208701610597565b94979496505050506040830135926060810135926080909101359150565b600080600080600080600080610100898b0312156107af57600080fd5b6107b889610597565b97506107c660208a01610597565b96506107d460408a01610597565b95506107e260608a01610597565b94506080890135935060a089013592506107fe60c08a016106b6565b915061080c60e08a016106b6565b90509295985092959890939650565b60008060006060848603121561083057600080fd5b61083984610597565b925061084760208501610597565b9150604084013590509250925092565b6000806000806000610400868803121561087057600080fd5b61087986610597565b94506020610888818801610597565b945087605f88011261089957600080fd5b6108a16105d5565b8061018089018a8111156108b457600080fd5b60408a015b818110156108d7576108ca81610597565b84529284019284016108b9565b508196506108e58b8261060d565b9550505050506108f9876102c0880161060d565b90509295509295909350565b8060005b600a811015610497578151845260209384019390910190600101610909565b6001600160a01b03841681526102a081016109466020830185610905565b610279610160830184610905565b60006020828403121561096657600080fd5b5051919050565b60006020828403121561097f57600080fd5b815180151581146105ce57600080fd5b6001600160a01b0385811682526103e082019060208084018760005b600a8110156109ca5781518516835291830191908301906001016109ab565b50505050506109dd610160830185610905565b61058e6102a083018461090556fea2646970667358221220d63953962c37bcf1a2d02b91a5b1f804e68b7a4da79bb356ad537fac38f90ff864736f6c634300080e0033",
    "linkReferences": {}
  },
  "methodIdentifiers": {
    "approveTransfer(address,address,uint256)": "82580805",
    "bidBlock(address,address,address,uint256,uint256,uint128,uint128)": "2ccaaa6e",
    "bidIndiv(address,address,address,address,uint256,uint256,uint128,uint128)": "7e3e8f3a",
    "broadcastBlock(address,address,uint256,uint256,uint256)": "abfbd963",
    "broadcastIndiv(address,address,uint256,uint256,uint256)": "38d2b22b",
    "claimBlockReward(address,address,uint256[10],uint256[10])": "9fd08951",
    "claimIndivReward(address,address,address[10],uint256[10],uint256[10])": "b6619a17",
    "claimProceeds(address,address,uint256[10],uint256[10])": "2cb6831b",
    "purchase(address)": "25b31a97"
  },
  "id": 5
}